:020000040802F0
:1000000000040020B10B0208E10C02089001020874
:10001000E10C0208E10C0208E10C0208E10C020804
:10002000E10C0208E10C0208E10C0208310D0208A3
:10003000E10C0208E10C0208E10C0208010D0208C3
:10004000E10C0208C1460208E10C0208014802085E
:10005000E10C0208E10C020881430208C1430208D6
:10006000014402084144020881440208D1330208D5
:100070003134020891340208F13402085135020883
:10008000B135020811360208313F0208E10C0208BE
:10009000E10C0208E10C0208E10C0208C14402086C
:1000A000E10C0208C1600208E10C0208E1600208EC
:1000B000715D0208E10C0208E10C0208E10C020883
:1000C000E10C0208E10C0208E10C0208E10C020854
:1000D000E10C020881640208A1640208E10C020834
:1000E000B14502080147020841470208E10C020835
:1000F000E10C0208915D0208E10C02087136020869
:10010000E10C0208514F0208E10C0208E10C020860
:10011000E10C0208E10C0208E10C0208E10C020803
:10012000D13602083137020891370208F137020848
:1001300051380208E10C020881470208E10C02086C
:10014000E10C0208E10C0208E10C0208E10C0208D3
:10015000B13802081139020871390208C164020875
:10016000E10C0208E10C0208E10C0208E10C0208B3
:10017000C1470208E10C0208E10C0208E10C020888
:08018000E10C0208E10C020889
:100190001EF0040F0CBFEFF30880EFF3098006F0A8
:1001A0004FBF000000000000000000000000000041
:1001B00081F0004102E000BF83F0004330B54FEA18
:1001C00041044FEA430594EA050F08BF90EA020F85
:1001D0001FBF54EA000C55EA020C7FEA645C7FEA18
:1001E000655C00F0E2804FEA5454D4EB5555B8BF3B
:1001F0006D420CDD2C4480EA020281EA030382EAAC
:10020000000083EA010180EA020281EA0303362D3D
:1002100088BF30BD11F0004F4FEA01314FF4801C10
:100220004CEA113102D0404261EB410113F0004F22
:100230004FEA03334CEA133302D0524263EB4303D9
:1002400094EA050F00F0A780A4F10104D5F1200E77
:100250000DDB02FA0EFC22FA05F2801841F10001D2
:1002600003FA0EF2801843FA05F359410EE0A5F1A6
:1002700020050EF1200E012A03FA0EFC28BF4CF0D7
:10028000020C43FA05F3C01851EBE37101F000458D
:1002900007D54FF0000EDCF1000C7EEB00006EEB9A
:1002A0000101B1F5801F1BD3B1F5001F0CD3490824
:1002B0005FEA30004FEA3C0C04F101044FEA44527B
:1002C00012F5800F80F09A80BCF1004F08BF5FEA02
:1002D000500C50F1000041EB045141EA050130BDE2
:1002E0005FEA4C0C404141EB010111F4801FA4F185
:1002F0000104E9D191F0000F04BF01460020B1FADA
:1003000081F308BF2033A3F10B03B3F120020CDA11
:100310000C3208DD02F1140CC2F10C0201FA0CF0EF
:1003200021FA02F10CE002F11402D8BFC2F1200C54
:1003300001FA02F120FA0CFCDCBF41EA0C0190400A
:10034000E41AA2BF01EB0451294330BD6FEA040453
:100350001F3C1CDA0C340EDC04F11404C4F120023E
:1003600020FA04F001FA02F340EA030021FA04F350
:1003700045EA030130BDC4F10C04C4F1200220FAA7
:1003800002F001FA04F340EA0300294630BD21FAE5
:1003900004F0294630BD94F0000F83F4801306BFAB
:1003A00081F480110134013D4EE77FEA645C18BF9F
:1003B0007FEA655C29D094EA050F08BF90EA020F36
:1003C00005D054EA000C04BF1946104630BD91EA2E
:1003D000030F1EBF0021002030BD5FEA545C05D131
:1003E0004000494128BF41F0004130BD14F5800470
:1003F0003CBF01F5801130BD01F0004545F0FE41E4
:1004000041F470014FF0000030BD7FEA645C1ABF18
:10041000194610467FEA655C1CBF0B46024650EA4F
:10042000013406BF52EA033591EA030F41F400217B
:1004300030BD00BF90F0000F04BF0021704730B501
:100440004FF4806404F132044FF000054FF00001D6
:1004500050E700BF90F0000F04BF0021704730B597
:100460004FF4806404F1320410F0004548BF40426C
:100470004FF000013EE700BF42004FEAE2014FEAC1
:1004800031014FEA02701FBF12F07F4393F07F4F9C
:1004900081F06051704792F0000F14BF93F07F4FCE
:1004A000704730B54FF4607401F0004521F0004111
:1004B00020E700BF50EA010208BF704730B54FF097
:1004C00000050AE050EA010208BF704730B511F09C
:1004D000004502D5404261EB41014FF4806404F1D4
:1004E00032045FEA915C3FF4DCAE4FF003025FEA56
:1004F000DC0C18BF03325FEADC0C18BF033202EBDE
:10050000DC02C2F1200300FA03FC20FA02F001FA37
:1005100003FE40EA0E0021FA02F11444C1E600BFD6
:1005200070B54FF0FF0C4CF4E06C1CEA11541DBF89
:100530001CEA135594EA0C0F95EA0C0F00F0DEF854
:100540002C4481EA030621EA4C5123EA4C5350EA39
:10055000013518BF52EA033541F4801143F480138A
:1005600038D0A0FB02CE4FF00005E1FB02E506F01B
:100570000042E0FB03E54FF00006E1FB03569CF070
:10058000000F18BF4EF0010EA4F1FF04B6F5007F76
:1005900064F5407404D25FEA4E0E6D4146EB0606E8
:1005A00042EAC62141EA55514FEAC52040EA5E5071
:1005B0004FEACE2EB4F1FD0C88BFBCF5E06F1ED81B
:1005C000BEF1004F08BF5FEA500E50F1000041EB52
:1005D000045170BD06F0004646EA010140EA0200FF
:1005E00081EA0301B4EB5C04C2BFD4EB0C0541EA21
:1005F000045170BD41F480114FF0000E013C00F336
:10060000AB8014F1360FDEBF002001F0004170BD59
:10061000C4F10004203C35DA0C341BDC04F1140472
:10062000C4F1200500FA05F320FA04F001FA05F2FE
:1006300040EA020001F0004221F0004110EBD370CB
:1006400021FA04F642EB06015EEA430E08BF20EAF7
:10065000D37070BDC4F10C04C4F1200500FA04F39A
:1006600020FA05F001FA04F240EA020001F000412C
:1006700010EBD37041F100015EEA430E08BF20EA9F
:10068000D37070BDC4F1200500FA05F24EEA020EE7
:1006900020FA04F301FA05F243EA020321FA04F016
:1006A00001F0004121FA04F220EA020000EBD370CD
:1006B0005EEA430E08BF20EAD37070BD94F0000FCD
:1006C0000FD101F00046400041EB010111F4801F01
:1006D00008BF013CF7D041EA060195F0000F18BFB2
:1006E000704703F00046520043EB030313F4801FEE
:1006F00008BF013DF7D043EA0603704794EA0C0FA8
:100700000CEA135518BF95EA0C0F0CD050EA4106BD
:1007100018BF52EA4306D1D181EA030101F000413A
:100720004FF0000070BD50EA410606BF1046194662
:1007300052EA430619D094EA0C0F02D150EA01366E
:1007400013D195EA0C0F05D152EA03361CBF1046AF
:1007500019460AD181EA030101F0004141F0FE414E
:1007600041F470014FF0000070BD41F0FE4141F4D2
:10077000780170BD70B54FF0FF0C4CF4E06C1CEAD2
:1007800011541DBF1CEA135594EA0C0F95EA0C0F87
:1007900000F0A7F8A4EB050481EA030E52EA033542
:1007A0004FEA013100F088804FEA03334FF0805563
:1007B00045EA131343EA12634FEA022245EA111590
:1007C00045EA10654FEA00260EF000419D4208BF41
:1007D000964244F1FD0404F5407402D25B084FEAEE
:1007E0003202B61A65EB03055B084FEA32024FF49A
:1007F00080104FF4002CB6EB020E75EB030E22BFF7
:10080000B61A754640EA0C005B084FEA3202B6EBB6
:10081000020E75EB030E22BFB61A754640EA5C0065
:100820005B084FEA3202B6EB020E75EB030E22BFF5
:10083000B61A754640EA9C005B084FEA3202B6EBF6
:10084000020E75EB030E22BFB61A754640EADC00B5
:1008500055EA060E18D04FEA051545EA16754FEA17
:1008600006164FEAC30343EA52734FEAC2025FEA35
:100870001C1CC0D111F4801F0BD141EA00014FF0C4
:1008800000004FF0004CB6E711F4801F04BF014395
:100890000020B4F1FD0C88BFBCF5E06F3FF6AFAEB1
:1008A000B5EB030C04BFB6EB020C5FEA500C50F141
:1008B000000041EB045170BD0EF0004E4EEA1131C4
:1008C00014EB5C04C2BFD4EB0C0541EA045170BDCB
:1008D00041F480114FF0000E013C90E645EA060E0F
:1008E0008DE60CEA135594EA0C0F08BF95EA0C0F3D
:1008F0003FF43BAF94EA0C0F0AD150EA01347FF485
:1009000034AF95EA0C0F7FF425AF104619462CE75B
:1009100095EA0C0F06D152EA03353FF4FDAE1046BE
:10092000194622E750EA410618BF52EA43067FF40F
:10093000C5AE50EA41047FF40DAF52EA43057FF49F
:10094000EBAE12E700000000000000000000000015
:100950004FF0FF3C06E000BF4FF0010C02E000BF8B
:100960004FF0010C4DF804CD4FEA410C7FEA6C5C6E
:100970004FEA430C18BF7FEA6C5C1BD001B050EA11
:10098000410C0CBF52EA430C91EA030F02BF90EAFC
:10099000020F0020704710F1000F91EA030F58BFBB
:1009A000994208BF90422CBFD8176FEAE37040F01D
:1009B000010070474FEA410C7FEA6C5C02D150EABB
:1009C000013C07D14FEA430C7FEA6C5CD6D152EA76
:1009D000033CD3D05DF8040B704700BF844610463B
:1009E00062468C461946634600E000BF01B5FFF73A
:1009F000B7FF002848BF10F1000F01BD4DF808ED0A
:100A0000FFF7F4FF0CBF012000205DF808FB00BFDA
:100A10004DF808EDFFF7EAFF34BF012000205DF834
:100A200008FB00BF4DF808EDFFF7E0FF94BF012081
:100A300000205DF808FB00BF4DF808EDFFF7CEFF82
:100A400094BF012000205DF808FB00BF4DF808EDC1
:100A5000FFF7C4FF34BF012000205DF808FB00BF92
:100A60004FEA410212F5001215D211D56FF47873D6
:100A7000B3EB625212D94FEAC12343F0004343EA79
:100A8000505311F0004F23FA02F018BF4042704754
:100A90004FF00000704750EA013005D111F00040DE
:100AA00008BF6FF0004070474FF00000704700BF74
:100AB0004A0011D212F5001211D20DD56FF47873DD
:100AC000B3EB62520ED44FEAC12343F0004343EA32
:100AD000505323FA02F070474FF00000704750EA7D
:100AE000013002D14FF0FF3070474FF000007047E7
:100AF0004FEA4102B2F1E04324BFB3F5001CDCF140
:100B0000FE5C0DD901F0004C4FEAC0024CEA507077
:100B1000B2F1004F40EB830008BF20F001007047A6
:100B200011F0804F21D113F13872BCBF01F00040A9
:100B3000704741F480114FEA5252C2F11802C2F1DB
:100B4000200C10FA0CF320FA02F018BF40F001005C
:100B50004FEAC1234FEAD32303FA0CFC40EA0C000E
:100B600023FA02F34FEA4303CCE77FEA625307D14B
:100B700050EA01331EBF4FF0FE4040F44000704782
:100B800001F0004040F0FE4040F40000704700BF1C
:100B9000704700BFAFF30080AFF30080AFF3008079
:100BA000FEE700BFAFF30080AFF30080AFF300803B
:100BB00072B640F60004C2F2000484F309884EF6CF
:100BC0003473CEF200034FF040421A604EF6885361
:100BD000CEF200034EF68852CEF20002126842F4C2
:100BE00070021A604FF00004E1EE104A4EF63C73BA
:100BF000CEF200031C604FF0060484F31488BFF3A8
:100C00006F8F40F20004C2F2000440F20045C2F2CD
:100C1000000504E04FF05533236004F10404AC42B6
:100C2000F8D340F20044C2F2000440F60005C2F2DC
:100C3000000504E04FF05533236004F10404AC4296
:100C4000F8D305F0FDFC4AF2C825C0F6020540F6CF
:100C50000004C2F2000405E02B68236004F10404E0
:100C600005F1040540F64C43C2F200039C42F3D365
:100C700040F65044C2F2000441F6E445C2F20005D9
:100C800004E04FF00003236004F10404AC42F8D305
:100C9000FFF77EFF40F28814C0F6020403E02368E9
:100CA000984704F1040440F28813C0F602039C4202
:100CB000F5D306F08DFF40F28814C0F6020403E07D
:100CC0002368984704F1040440F28813C0F6020335
:100CD0009C42F5D3FFF764FFAFF30080AFF30080D1
:100CE000FEE700BFAFF30080AFF30080AFF30080FA
:100CF00072B6FEE7AFF30080AFF30080AFF3008081
:100D000008B500F005FB4FF0200383F3118800F0D5
:100D1000BFFA00F0EDF900F0DBFA4FF0000383F3C7
:100D2000118800F025FB00F053F808BDAFF30080F8
:100D300010B483B0EFF309840194019B03F16803BD
:100D400001934EF63073CEF20003019A526E5A6050
:100D50004EF63073CEF200034EF63072CEF2000241
:100D6000926802F168029A60019B83F309884FF050
:100D7000000383F3118803B010BC7047AFF3008009
:100D800008B54FF46D43CEF200034FF400329A6081
:100D90004FF46D43CEF200034FF44072C0F2FA52AA
:100DA000DA604FF007004FF0100100F009F94FF042
:100DB0000A004FF4007100F003F94FF00B004FF000
:100DC000800100F0FDF808BDAFF30080AFF30080B4
:100DD00010B483B04FF0200383F311884FF46D43B8
:100DE000CEF200035B6803F40063002B5ED0EFF3E8
:100DF00009840194019BA3F168030193019B83F390
:100E00000988019B4FF08072DA6141F21823C2F227
:100E100000039B6993F82330002B11D041F2182373
:100E2000C2F200031B689A6841F21823C2F2000361
:100E30009B699B689A4294BF00230123DBB210E0B8
:100E400041F21823C2F200031B689A6841F218238A
:100E5000C2F200039B699B689A4234BF00230123BE
:100E6000DBB2002B08D0019A40F6C163C0F6020342
:100E70009361F1EE10FA05E0019A40F6CC63C0F6FA
:100E800002039361019B03F168024EF63073CEF2C8
:100E900000035B680093009B53664EF63073CEF2FE
:100EA0000003009A42F001025A6003E04FF0000391
:100EB00083F3118803B010BC704700BFAFF300800C
:100EC00000F0A6F900F034FE00F0C2F900DF00BF28
:100ED00003460A462DE9F04F2DED108AC2F80CD0DA
:100EE000D3F80CD0BDEC108ABDE8F08FAFF30080D2
:100EF00008B500F0ADF94FF0000383F311882846E0
:100F0000A04700F04DFF08BDAFF30080AFF30080B5
:100F100010B485B001900091019B03F003034FEAE8
:100F2000C30303934FF46143CEF20003019A4FEAE7
:100F300092004FF46142CEF2000201994FEA910112
:100F400001F1C00152F82110039A4FF0FF0404FA96
:100F500002F26FEA02021140039A009C04FA02F2C4
:100F6000114300F1C00243F822104FF46143CEF266
:100F70000003019A4FEA5212019901F01F014FF04C
:100F8000010000FA01F102F1600243F822104FF46F
:100F90006143CEF20003019A4FEA5212019901F027
:100FA0001F014FF0010000FA01F143F8221005B0D3
:100FB00010BC7047AFF30080AFF30080AFF3008048
:100FC00010B485B001900091019B03F003034FEA38
:100FD000C30303934FF46D43CEF20003019A4FEA2B
:100FE00092004FF46D42CEF2000201994FEA910156
:100FF00001F1060152F82110039A4FF0FF0404FAA0
:1010000002F26FEA02021140039A009C04FA02F213
:10101000114300F1060243F8221005B010BC7047DE
:1010200082B0019041F21823C2F200039A6948F697
:101030001033C0F602039361FEE700BFAFF30080F8
:1010400000B583B0FFF79CFE00F04AFB00F060FAA9
:1010500001F046FA01F0B4FA00F0EAF940F6A850BF
:10106000C2F200004FF0400100F082FD024641F262
:101070001823C2F200039A6141F21823C2F200035E
:101080009B694FF0010283F8202041F21823C2F23D
:1010900000039A6940F20043C2F20003D36100F0FA
:1010A0009FF84FF0000383F3118862B641F21823D2
:1010B000C2F200039A6949F66003C0F60203936125
:1010C0004FF00003009340F65040C2F200004FF48E
:1010D000AC714FF0010241F22103C0F6020300F0AF
:1010E000FFFD03B000BD00BFAFF30080AFF3008091
:1010F00000B583B000F06CF941F21823C2F200038E
:101100009B6993F82330002B0BD041F21823C2F2D5
:1011100000039B6993F8232002F1FF32D2B283F8D7
:10112000232041F21823C2F200039B695A6A02F19C
:1011300001025A6241F20823C2F20003DB6803F1A4
:10114000010241F20823C2F20003DA6041F20823EF
:10115000C2F200031A6841F20823C2F200039A4265
:1011600039D041F20823C2F200031B689A6802F1E9
:10117000FF329A6025E0019BDB680093019B4FF0F2
:101180000002DA60019B1A6841F20823C2F20003F0
:101190005360019B1A6841F20823C2F200031A60EF
:1011A00000F096F84FF0000383F31188019B1A6951
:1011B000009B104698474FF0200383F3118800F0FE
:1011C00067F841F20823C2F200031B680193019BF8
:1011D0009B68002BCFD003B000BD00BFAFF30080F1
:1011E00008B540F6F453C2F200031B68002B06D189
:1011F00040F6F853C2F200031B68002B05D048F6F6
:101200003030C0F6020000F073F908BDAFF3008083
:1012100008B540F6F453C2F200031B68002B06D158
:1012200040F6F853C2F200031B68002B05D048F6C5
:101230003830C0F6020000F05BF940F6F853C2F215
:1012400000034FF001021A6008BD00BFAFF3008039
:1012500008B540F6F453C2F200031B68002B06D118
:1012600040F6F853C2F200031B68002B05DC48F679
:101270004030C0F6020000F03BF940F6F853C2F2ED
:1012800000034FF000021A6008BD00BFAFF30080FA
:1012900008B540F6F453C2F200031B68002B06DDCC
:1012A00040F6F853C2F200031B68002B05D048F645
:1012B0004830C0F6020000F01BF940F6F853C2F2C5
:1012C00000034FF001021A6008BD00BFAFF30080B9
:1012D00008B540F6F453C2F200031B68002B06DD8C
:1012E00040F6F853C2F200031B68002B05DC48F6F9
:1012F0005030C0F6020000F0FBF840F6F853C2F29E
:1013000000034FF000021A6008BD00BFAFF3008079
:1013100008B54FF0200383F3118840F6F453C2F26E
:1013200000031B68002B06DB40F6F853C2F20003F3
:101330001B68002B05D048F65830C0F6020000F0BC
:10134000D7F840F6F453C2F200031B6803F1010220
:1013500040F6F453C2F200031A604FF0000383F327
:10136000118808BDAFF30080AFF30080AFF30080B9
:1013700008B54FF0200383F3118840F6F453C2F20E
:1013800000031B68002B06DD40F6F853C2F2000391
:101390001B68002B05D048F66030C0F6020000F054
:1013A000A7F840F6F453C2F200031B6803F1FF32C2
:1013B00040F6F453C2F200031A604FF0000383F3C7
:1013C000118808BDAFF30080AFF30080AFF3008059
:1013D00008B540F6F453C2F200031B68002B06DB8D
:1013E00040F6F853C2F200031B68002B05DC48F6F8
:1013F0006830C0F6020000F07BF808BDAFF3008053
:1014000008B540F6F453C2F200031B68002B06D166
:1014100040F6F853C2F200031B68002B05DC48F6C7
:101420007030C0F6020000F063F808BDAFF3008032
:1014300040F6FC53C2F200034FF040021A6040F63F
:10144000FC53C2F20003014A5A607047040E0020A8
:1014500082B0019040F6FC53C2F200035A6841F298
:101460000823C2F20003DB68136040F6FC53C2F2AB
:1014700000035A6841F21823C2F200039B695360CB
:1014800040F6FC53C2F200035B68019A926A9A60CC
:1014900040F6FC53C2F200035B68019A92F82020E8
:1014A0001A7340F6FC53C2F200035B6803F11002AA
:1014B00040F6FC53C2F200035A6040F6FC53C2F2FD
:1014C00000035A68054B9A4205D340F6FC53C2F21A
:1014D0000003034A5A6002B0704700BF04120020A4
:1014E000040E0020AFF30080AFF30080AFF3008064
:1014F00000B583B0019041F20423C2F20003019AC7
:101500001A60FFF7F5FB03B000BD00BFAFF300802A
:1015100041F20823C2F2000341F20822C2F20002A3
:101520005A6041F20823C2F200035A6841F20823CC
:10153000C2F200031A6041F20823C2F200034FF026
:10154000FF329A6041F20823C2F200034FF000021A
:10155000DA607047AFF30080AFF30080AFF3008034
:1015600000B587B00390029101920093FFF730FF1E
:10157000039B002B05D0019B002B02D0029B002B6C
:1015800005D148F68030C0F60200FFF7B1FF039B9B
:10159000009A1A61039B019ADA6041F20823C2F2B1
:1015A00000031B68059307E0059B9B68029AD31A0A
:1015B0000293059B1B680593059B9A68029B9A42C0
:1015C000F2D3039B059A1A60039B1B685A68039B1E
:1015D0005A60039B5B68059A03995160059A5268AB
:1015E0001A60039B029A9A60059A41F20823C2F29C
:1015F00000039A4205D0059B9A68029BD21A059B6C
:101600009A6007B000BD00BFAFF30080AFF3008069
:1016100000B583B00190FFF7DBFE019B002B05D1E5
:1016200048F69030C0F60200FFF762FF019BDB68CE
:10163000002B05D148F6A030C0F60200FFF758FF96
:10164000019B1A6841F20823C2F200039A4208D0B3
:10165000019B1B68019A12689168019A92688A1826
:101660009A60019B5B68019A12681A60019B1B6873
:10167000019A52685A60019B4FF00002DA6003B091
:1016800000BD00BFAFF30080AFF30080AFF3008078
:1016900084B00190019B1B680393039B1A68019B14
:1016A0001A60019B1B68019A5A60039B184604B09C
:1016B000704700BFAFF30080AFF30080AFF300804E
:1016C00082B00190019B5B68019A12681A60019BCD
:1016D0001B68019A52685A60019B184602B0704715
:1016E00041F21823C2F2000341F21822C2F20002B2
:1016F0005A6041F21823C2F200035A6841F21823DB
:10170000C2F200031A6041F21823C2F200034FF044
:1017100000029A6041F21823C2F2000341F218223B
:10172000C2F200025A6141F21823C2F200035A6960
:1017300041F21823C2F200031A617047AFF3008030
:1017400000B585B00190FFF743FE019B93F8203070
:10175000002B04D0019B93F820300E2B05D148F6C6
:10176000C030C0F60200FFF7C3FE019B4FF000023D
:1017700083F8202041F21823C2F200030393039B55
:101780001B680393039B9A68019B9B689A42F6D25D
:10179000019B039A1A60039B5A68019B5A60019B44
:1017A0005B68039A01995160039A52681A60019B21
:1017B000184605B000BD00BFAFF30080AFF3008056
:1017C00000B585B003468DF80730FFF719FE41F2EA
:1017D0001823C2F200039B690393039B9DF8072023
:1017E00083F82020039B4FF0140283F8232041F25A
:1017F0001820C2F20000FFF74BFF024641F2182307
:10180000C2F200039A6141F21823C2F200039B69FD
:101810004FF0010283F820200398FFF719FE6B4672
:10182000A3F16402039BDB699A4205D248F6D430E7
:10183000C0F60200FFF75CFE41F21823C2F200037B
:101840009B6918460399FFF743FB05B000BD00BF35
:1018500000B585B00190019B03934FF0200383F303
:101860001188FFF715FD039B93F820300D2B2FD81F
:1018700001A252F823F000BFB1180208D1180208E3
:10188000D1180208BF180208D1180208CB180208A4
:10189000D1180208D1180208D1180208D11802087C
:1018A000D1180208D1180208D1180208CB18020872
:1018B000FFF70EFD4FF0000383F3118815E0039B43
:1018C0009B6A9A6802F101029A600398FFF7F8FE9A
:1018D000039B4FF0FF329A620398FFF731FFFFF747
:1018E000F7FC4FF0000383F3118805B000BD00BF83
:1018F00000B589B0034600918DF80730FFF780FDF1
:10190000009BB3F1FF3F1AD041F21823C2F200034B
:101910009B6903AA1046009941F65102C0F60202E3
:10192000FFF71EFE9DF807301846FFF749FF069B9C
:10193000002B09D003AB1846FFF76AFE04E09DF8C0
:1019400007301846FFF73CFF41F21823C2F20003AC
:101950009B699B6A184609B000BD00BFAFF30080C9
:1019600000B585B001900091FFF74AFD019B009AF8
:101970009A62019B9A6841F21823C2F200039B69A4
:101980009B689A4203D80198FFF7DAFE27E041F2FC
:101990001823C2F200039B691846FFF7D1FE03909B
:1019A00041F21823C2F20003019A9A61019B4FF0A1
:1019B000010283F820200398FFF74AFD6B46A3F14C
:1019C0006402039BDB699A4205D248F6D430C0F624
:1019D0000200FFF78DFD01980399FFF779FA05B032
:1019E00000BD00BFAFF30080AFF30080AFF3008015
:1019F00000B583B041F21823C2F200039B69019342
:101A000041F21820C2F20000FFF742FE024641F206
:101A10001823C2F200039A6141F21823C2F20003B4
:101A20009B694FF0010283F82020019B4FF01402C4
:101A300083F823200198FFF783FE0198FFF708FD44
:101A40006B46A3F16402019BDB699A4205D248F61A
:101A5000D430C0F60200FFF74BFD41F21823C2F26A
:101A600000039B6918460199FFF732FA03B000BDE5
:101A700000B583B041F21823C2F200039B690093C2
:101A800041F21820C2F20000FFF702FE024641F2C6
:101A90001823C2F200039A6141F21823C2F2000334
:101AA0009B694FF0010283F82020009B4FF0000259
:101AB00083F8202041F21823C2F200030193019B16
:101AC0001B680193019B9A68009B9B689A42F6D819
:101AD000009B019A1A60019B5A68009B5A60009B08
:101AE0005B68019A00995160019A52681A600098E7
:101AF000FFF7AEFC6B46A3F16402009BDB699A42E0
:101B000005D248F6D430C0F60200FFF7F1FC41F2EE
:101B10001823C2F200039B6918460099FFF7D8F911
:101B200003B000BDAFF30080AFF30080AFF30080DF
:101B300008B541F21823C2F200039B6993F82330E1
:101B4000002B02D1FFF754FF01E0FFF791FF08BD22
:101B500084B00190019B1B680393039B1A68019B4F
:101B60001A60039B184604B0704700BFAFF30080B3
:101B700082B001900091019B009A9A60019B4FF006
:101B8000020283F82020019B4FF0000283F82120FD
:101B9000019B4FF0140283F82320019B009A5A64A2
:101BA000019B4FF000021A64019B4FF00002DA63C0
:101BB000019B4FF000025A62019B4FF0010283F833
:101BC0002220019B4FF000029A61019A41F21823F2
:101BD000C2F20003136141F21823C2F200035A69F2
:101BE000019B5A61019B5A6941F21823C2F200031A
:101BF0000199596141F21823C2F200035B69136134
:101C0000019B03F12C02019BDA62019B03F130027C
:101C1000019B5A63019B5A6B019B1A63019B03F161
:101C20004C02019BDA61019B184602B0704700BF6D
:101C300084B00390029113468DF8073007E0039BB0
:101C40009DF807201A70039B03F101030393039A85
:101C5000029B9A42F3D304B0704700BFAFF30080F9
:101C600000B587B00390029101920093039B059306
:101C7000FFF7AEFB039B002B0AD0029A40F237130A
:101C80009A4205D9019B7F2B02D8009B002B05D1DE
:101C900048F6F030C0F60200FFF72AFC029BA3F1E1
:101CA0006403039AD218059BDA60059BDB68009AEF
:101CB0001A64059BDB68089A5A64059BDA6840F64B
:101CC000F163C0F60203136605980199FFF750FF10
:101CD0000346184607B000BDAFF30080AFF30080A5
:101CE00000B589B00590049103920293059B03F11E
:101CF0004C03059819464FF0FF02FFF799FF059B2B
:101D000003F14C020599049BCB18104619464FF07D
:101D10005502FFF78DFF4FF0200383F31188FFF783
:101D200077FA0A9B009305980499039A029BFFF7A0
:101D300097FF079007984FF00001FFF711FEFFF79C
:101D400087FA4FF0000383F31188079B184609B008
:101D500000BD00BFAFF30080AFF30080AFF30080A1
:101D600000B583B00190019B002B05D148F63040AF
:101D7000C0F60200FFF7BCFB4FF0200383F311888D
:101D8000FFF746FA4FF006000199FFF7B1FDFFF7A4
:101D90005FFA4FF0000383F3118803B000BD00BF6A
:101DA00000B583B001904FF0200383F31188FFF753
:101DB0002FFA019800F004F803B000BDAFF30080E3
:101DC00000B585B0019041F21823C2F200039B696F
:101DD0000393039B019A9A6209E0039B03F12C038E
:101DE0001846FFF7B5FE03461846FFF7A9FC039B0C
:101DF000DA6A039B03F12C039A42EED1039B93F81A
:101E0000213003F00303002B09D1039B5B69039A84
:101E100012691A61039B1B69039A52695A614FF058
:101E20000E00FFF7CDFC48F64040C0F60200FFF779
:101E30005FFB05B000BD00BFAFF30080AFF30080D3
:101E400000B583B00190019B002B05D148F690406E
:101E5000C0F60200FFF74CFB019A019B5A60019B00
:101E60005A68019B1A60019B4FF000029A6003B010
:101E700000BD00BFAFF30080AFF30080AFF3008080
:101E800000B585B001900091FFF7A2FA019B002BED
:101E900005D148F66C50C0F60200FFF729FB019B04
:101EA0001B68039310E0039BDA68009B1A43039BB3
:101EB000DA60039B5A68039B9B681046194600F042
:101EC0000FF8039B1B680393039A019B9A42EAD184
:101ED00005B000BDAFF30080AFF30080AFF300802A
:101EE00000B583B001900091FFF772FA019B002BBF
:101EF00005D148F69450C0F60200FFF7F9FA019BAD
:101F0000DA6B009B1A43019BDA63019B93F8203044
:101F1000082B06D1019BDA6B019B9B6A1340002BB7
:101F20000DD1019B93F82030092B0FD1019BDA6B67
:101F3000019B9B6A1A40019B9B6A9A4206D10198B9
:101F4000FFF7FEFB03464FF000029A6203B000BDAC
:101F500082B001900091019B009A1A60009B5A6820
:101F6000019B5A60019B5B68009A01995160009A3D
:101F700052681A6002B07047AFF30080AFF3008080
:101F800084B00190019B1B680393039B1A68019B1B
:101F90001A60019B1B68019A5A60039B184604B0A3
:101FA000704700BFAFF30080AFF30080AFF3008055
:101FB00000B583B001900091009B002B02D14FF03F
:101FC000FF3316E041F21823C2F200039B69019A25
:101FD0009A6241F21823C2F200039A69019B1046EB
:101FE0001946FFF7B5FF4FF00D000099FFF780FC91
:101FF0000346184603B000BDAFF30080AFF3008086
:1020000084B00390029101920093039A039B5A605B
:10201000039B5A68039B1A60039B4FF000029A606F
:10202000039B029A5A61039B5A69039B9A61039B23
:102030009A69039BDA60029A019BD218039B1A618A
:10204000039B009ADA61039B049A1A6204B07047FA
:1020500000B583B001900B468DF80330FFF7B8F957
:10206000019B5A69019B9B699A4206D1019B9B681F
:10207000002B02D04FF0010301E04FF0000303F00A
:102080000103DBB2002B02D06FF003032BE0019BB6
:102090009B6803F10102019B9A60019B5B699DF8BB
:1020A00003201A7003F10102019B5A61019B5A69D6
:1020B000019B1B699A4203D3019BDA68019B5A6119
:1020C000019B1A68019B9A420BD0019B1846FFF7AF
:1020D00057FF03461846FFF733FB03464FF0000255
:1020E0009A624FF00003184603B000BDAFF30080C2
:1020F00000B585B0019000914FF0200383F3118863
:10210000FFF786F8019BDB69002B14D0019BDB698C
:10211000019898470FE001980099FFF749FF039055
:10212000039B002B08DAFFF793F84FF0000383F3CB
:102130001188039B25E000BF019B9B68002BEAD020
:10214000019B9B6803F1FF32019B9A60019B9B6995
:102150001A788DF80B2003F10102019B9A61019B13
:102160009A69019B1B699A4203D3019BDA68019B20
:102170009A61FFF76DF84FF0000383F311889DF823
:102180000B30184605B000BDAFF30080AFF3008000
:1021900000B587B00390029101920093039BDB6925
:1021A00004934FF000030593019B002B05D148F6E3
:1021B000D050C0F60200FFF79BF94FF0200383F3E5
:1021C0001188FFF725F8049B002B12D0049B03987D
:1021D00098470EE003980099FFF7EAFE0346002BAC
:1021E00008D0FFF735F84FF0000383F31188059B03
:1021F0003BE000BF039B9B68002BEBD0039B9B68DD
:1022000003F1FF32039B9A60039B9B691978029A42
:102210001170029A02F10102029203F10102039B82
:102220009A61039B9A69039B1B699A4203D3039BA0
:10223000DA68039B9A61FFF70BF84FF0000383F312
:102240001188059B03F101030593019B03F1FF3303
:102250000193019B002B01D1059B06E04FF0200369
:1022600083F31188FEF7D4FFADE7184607B000BD31
:1022700084B00390029101920093039A039B5A60E9
:10228000039B5A68039B1A60039B019A9A60039B05
:10229000029A5A61039B5A69039B9A61039B9A694C
:1022A000039BDA60029A019BD218039B1A61039B7D
:1022B000009ADA61039B049A1A6204B0704700BF67
:1022C00000B587B003900B4601928DF80B304FF0AC
:1022D000200383F31188FEF79BFF0FE00398019919
:1022E000FFF766FE0590059B002B07DAFEF7B0FFAF
:1022F0004FF0000383F31188059B2CE0039B9B6840
:10230000002BEBD0039B9B6803F1FF32039B9A6089
:10231000039B5B699DF80B201A7003F10102039B7C
:102320005A61039B5A69039B1B699A4203D3039B1F
:10233000DA68039B5A61039BDB69002B03D0039B84
:10234000DB6903989847FEF783FF4FF0000383F3A0
:1023500011884FF00003184607B000BDAFF30080AE
:1023600000B585B00190FFF733F8019B5A69019BD6
:102370009B699A4206D1019B9B68002B02D04FF0CB
:10238000010301E04FF0000303F00103DBB2002B77
:1023900002D06FF002032BE0019B9B6803F1010266
:1023A000019B9A60019B9B691A788DF80F2003F1BD
:1023B0000102019B9A61019B9A69019B1B699A42E8
:1023C00003D3019BDA68019B9A61019B1A68019B08
:1023D0009A420BD0019B1846FFF7D2FD03461846E0
:1023E000FFF7AEF903464FF000029A629DF80F30F6
:1023F000184605B000BD00BFAFF30080AFF300800A
:1024000000B587B00390029101920093039BDB69B2
:1024100004934FF000030593019B002B05D148F670
:10242000E450C0F60200FFF763F84FF0200383F397
:102430001188FEF7EDFE0EE003980099FFF7B8FD56
:102440000346002B07D0FEF703FF4FF0000383F392
:102450001188059B41E0039B9B68002BECD0039BFC
:102460009B6803F1FF32039B9A60039B5B69029AAE
:1024700012781A7003F10102039B5A61029B03F167
:1024800001030293039B5A69039B1B699A4203D37E
:10249000039BDA68039B5A61049B002B02D0049BC8
:1024A00003989847FEF7D4FE4FF0000383F311889A
:1024B000059B03F101030593019B03F1FF33019396
:1024C000019B002B01D1059B07E04FF0200383F314
:1024D0001188FEF79DFE00BFBDE7184607B000BD9E
:1024E00041F6E443C2F2000303F1070323F00703BC
:1024F0001A4641F23423C2F200031A604CF2000380
:10250000C2F2010323F007031A4641F23823C2F254
:1025100000031A60704700BFAFF30080AFF3008084
:1025200000B585B001904FF0200383F31188FEF7CA
:102530006FFE019800F00CF80390FEF789FE4FF053
:10254000000383F31188039B184605B000BD00BF4C
:1025500000B585B00190FEF73BFF019B03F1070337
:1025600023F00703019341F23823C2F200031B68F2
:102570001A4641F23423C2F200031B68D31A1A46EA
:10258000019B9A4202D24FF0000312E041F2342341
:10259000C2F200031B68039341F23423C2F200032A
:1025A0001A68019BD21841F23423C2F200031A6068
:1025B000039B184605B000BDAFF30080AFF3008069
:1025C00008B541F24023C2F2000342F22152C0F6A4
:1025D00002021A6041F24023C2F200034FF00002EF
:1025E0009A6041F24023C2F200034FF00002DA6029
:1025F0000148FFF725FC08BD50120020AFF3008012
:1026000008B501F045FB49F69010C0F6020003F052
:1026100077F800F015F800F043F800F091F800F0BA
:102620001FF900F07DFD00F013FA00F029FE00F024
:10263000CFF904F03DF808BDAFF30080AFF30080A0
:1026400008B501F005FE08BDAFF30080AFF30080D0
:1026500000B583B00190019B4FF001021A70019BFD
:102660004FF000025A60019B4FF000029A60019BFC
:102670004FF00002DA60019B4FF000021A61019BEB
:102680004FF000025A61019B03F118031846FFF74F
:10269000D7FB03B000BD00BFAFF30080AFF30080F5
:1026A00008B502F025F908BDAFF30080AFF3008054
:1026B00082B00190019B4FF001021A70019B4FF014
:1026C00000025A6002B07047AFF30080AFF30080A1
:1026D00000B583B001900091019B002B02D0009BBC
:1026E000002B05D148F60060C0F60200FEF700FF9F
:1026F0004FF0200383F31188FEF78AFD019B1B78BE
:10270000012B09D0019B1B78022B05D048F61060E5
:10271000C0F60200FEF7ECFE019B009A5A60019899
:1027200002F0EEF8019B4FF002021A70FEF790FDE6
:102730004FF0000383F3118803B000BDAFF30080B6
:1027400008B503F035FB08BDAFF30080AFF30080A0
:1027500082B00190019B4FF001021A70019B4FF073
:1027600000025A6002B07047AFF30080AFF3008000
:1027700000B583B001900091019B002B02D0009B1B
:10278000002B05D148F6D060C0F60200FEF7B0FE7F
:102790004FF0200383F31188FEF73AFD019B1B786D
:1027A000012B09D0019B1B78022B05D048F6DC6079
:1027B000C0F60200FEF79CFE019B009A5A60019849
:1027C00003F016FB019B4FF002021A70FEF740FD6A
:1027D0004FF0000383F3118803B000BDAFF3008016
:1027E00000B583B0019000914FF0200383F311886E
:1027F000FEF70EFD0198009900F00AF8FEF728FD9B
:102800004FF0000383F3118803B000BDAFF30080E5
:1028100000B583B001900091FEF7DAFD019B002B1B
:1028200005D148F63870C0F60200FEF761FE019B44
:102830001B78022B05D048F65070C0F60200FEF758
:1028400057FE019B4FF003021A700198009903F0A4
:1028500077FB03B000BD00BFAFF30080AFF3008093
:1028600008B503F04DFC08BDAFF30080AFF3008066
:1028700082B00190019B4FF001021A70019B4FF052
:1028800000025A6002B07047AFF30080AFF30080DF
:1028900000B589B0039002910192029A019B9A427D
:1028A00004D3029A019BD31A1F2B05D948F6E07076
:1028B000C0F60200FEF71CFE019B4FEA531307937C
:1028C000019B03F01F030693029B4FEA53130593EA
:1028D000029B03F01F0303F101034FF0010202FA10
:1028E00003F303F1FF330493079A059B9A4217D22F
:1028F000079B4FEA8303039AD3181A68069B22FAB0
:1029000003F2059B4FEA83030399CB181968049BD4
:102910001940069BC3F1200301FA03F313430AE0B5
:10292000079B4FEA8303039AD3181A68049B1A4043
:10293000069B22FA03F3184609B000BDAFF30080EE
:1029400000B587B00190019B03F10C031B684FEAAF
:102950009373002B02D0012B26D032E001984FF068
:1029600049014FF03E02FFF793FF059001984FF0A9
:1029700031014FF02F02FFF78BFF049001984FF0C9
:1029800053014FF05002FFF783FF0390059B03F1C3
:102990000102049B03F1020302FA03F2039BA3F179
:1029A000090302FA03F30EE001984FF045014FF0DE
:1029B0003002FFF76DFF034603F101034FEA832363
:1029C00001E04FF00003184607B000BDAFF30080F0
:1029D00008B502F015FF08BDAFF30080AFF300802B
:1029E00000B585B00190019B9A6B03AB01984FF045
:1029F0000D0102F0F5FB0346002B07D1039A4EF2BE
:102A00000803CFF6FF531340002B02D04FF0010311
:102A100015E0039B4FEA532303F00F03042B04D06C
:102A2000042B0AD3072B08D802E04FF0000306E07E
:102A30004FF00100FFF794F9D5E74FF00103184676
:102A400005B000BDAFF30080AFF30080AFF30080AE
:102A500008B502F0B5FA08BDAFF30080AFF300800F
:102A600082B00190019A49F68003C0F60203136018
:102A7000019B4FF001021A71019B4FF000025A6353
:102A8000019B4FF00002DA62019B4FF000029A6254
:102A900002B07047AFF30080AFF30080AFF3008067
:102AA00000B587B00190019B002B05D149F23C0095
:102AB000C0F60200FEF71CFD019B1B79022B09D01A
:102AC000019B1B79052B05D049F24C00C0F6020092
:102AD000FEF70EFD019B4FF003021A71019802F000
:102AE0008FFA01984FF000014FF0000202F008FB4E
:102AF00003AB01984FF008014FF4D57202F070FB60
:102B0000034683F00103DBB2002B21D0019B4FF081
:102B100001021A63039B4FEA132303F00F03012BF7
:102B200040F0FA8003AB01984FF037014FF00002FC
:102B300002F056FB0346002B40F0FD80039A4EF254
:102B40000803CFF6FF531340002B40F0F48003E05E
:102B5000019B4FF000021A63019B1B6B03F00F03F4
:102B6000012B05D14FF00003CCF21003049304E0D5
:102B70004FF00003C8F2100304934FF000030593D5
:102B800003AB01984FF037014FF0000202F028FB31
:102B90000346002B40F0CF80039A4EF20803CFF695
:102BA000FF531340002B40F0C68003AB01984FF059
:102BB0002901049A02F0CCFA0346002B40F0AE80C3
:102BC000039B002B0BDA039B03F08043002B13D0F5
:102BD000019B1B6B43F01002019B1A630CE0059BE9
:102BE00003F101030593059B632B00F299804FF0DD
:102BF0000A00FFF7B5F8C3E700BF019B03F1080324
:102C000001984FF002014FF0000202F031FB034641
:102C1000002B40F08780019B03F1380301984FF0AF
:102C200003014FF0000202F0DBFA0346002B7BD1D8
:102C3000019B9A6B019B03F1180301984FF0090166
:102C400002F016FB0346002B70D1019802F000FA47
:102C5000019B9A6B03AB01984FF0070102F0C0FA99
:102C60000346002B64D103AB01984FF010014FF4E1
:102C7000007202F0B5FA0346002B5CD1039A4EF2C3
:102C80000803CFF6FF531340002B54D1019B1B6B5D
:102C900003F00F03012B2BD801984FF0010102F034
:102CA000FFF9019B9A6B03AB01984FF0370102F0DB
:102CB00097FA0346002B3ED1039A4EF20803CFF653
:102CC000FF531340002B36D103AB01984FF00601A0
:102CD0004FF0020202F084FA0346002B2BD1039A34
:102CE0004EF20803CFF6FF531340002B23D100BF51
:102CF000019B03F118031846FFF722FE0246019BD1
:102D00009A62019B9B6A002B14D0019B4FF0050235
:102D10001A714FF0000317E000BF0CE000BF0AE09B
:102D200000BF08E000BF06E000BF04E000BF02E013
:102D300000BF00E000BF019802F09AF9019B4FF03C
:102D400002021A714FF00103184607B000BD00BF20
:102D500000B583B00190019B002B05D149F26000C2
:102D6000C0F60200FEF7C4FB4FF0200383F3118886
:102D7000FEF74EFA019B1B79022B09D0019B1B79B0
:102D8000052B05D049F27400C0F60200FEF7B0FB37
:102D9000019B1B79022B08D1FEF75AFA4FF0000372
:102DA00083F311884FF0000322E0019B4FF00402EF
:102DB0001A71FEF74DFA4FF0000383F31188019862
:102DC000FFF70EFE0346002B09D0019802F050F9E0
:102DD000019B4FF002021A714FF0010308E00198C5
:102DE00002F046F9019B4FF002021A714FF0000306
:102DF000184603B000BD00BFAFF30080AFF3008002
:102E000000B587B00390029101920093039B002BC1
:102E100005D0019B002B02D0009B002B05D149F26D
:102E20008800C0F60200FEF763FB039B1B79052BAD
:102E300005D049F29400C0F60200FEF759FB029A51
:102E4000009BD31803F1FF32039B9B6A9A4208D977
:102E5000039B5B6B43F08002039B5A634FF00103BB
:102E600012E0039B4FF006021A7103980299019A2F
:102E7000009B02F075FB03468DF81730039B4FF063
:102E800005021A719DF81730184607B000BD00BF43
:102E900000B587B00390029101920093039B002B31
:102EA00005D0019B002B02D0009B002B05D149F2DD
:102EB000A400C0F60200FEF71BFB039B1B79052B49
:102EC00005D049F2B400C0F60200FEF711FB029AE9
:102ED000009BD31803F1FF32039B9B6A9A4208D9E7
:102EE000039B5B6B43F08002039B5A634FF001032B
:102EF00012E0039B4FF007021A7103980299019A9E
:102F0000009B02F07DFB03468DF81730039B4FF0CA
:102F100005021A719DF81730184607B000BD00BFB2
:102F200000B585B00190019B002B05D149F2FC0052
:102F3000C0F60200FEF7DCFA019B1B79052B02D0DC
:102F40004FF001030FE0019B4FF008021A71019846
:102F500002F0A6FB03468DF80F30019B4FF00502EF
:102F60001A719DF80F30184605B000BDAFF3008010
:102F700000B583B001900091019B002B02D0009B13
:102F8000002B05D149F20810C0F60200FEF7B0FA96
:102F9000019B1B79052B02D04FF0010309E0019B37
:102FA0009A6A009B5A60009B4FF400721A604FF0BF
:102FB0000003184603B000BDAFF30080AFF30080FC
:102FC00000B585B0039002910192039B03F1300399
:102FD00018460299019A4FF0FF33FFF711FA0346A2
:102FE000184605B000BD00BFAFF30080AFF300800E
:102FF00000B585B0039002910192039B03F10C038D
:1030000018460299019A4FF0FF33FFF7C1F80346C3
:10301000184605B000BD00BFAFF30080AFF30080DD
:1030200000B583B001900B468DF80330019B03F18E
:1030300030029DF80330104619464FF0FF32FFF77B
:103040003FF90346184603B000BD00BFAFF3008050
:1030500000B583B00190019B03F10C0318464FF0BB
:10306000FF31FFF745F80346184603B000BD00BF27
:1030700000B585B003900B4601928DF80B30039B91
:1030800003F130029DF80B3010461946019AFFF704
:1030900017F90346184605B000BD00BFAFF3008026
:1030A00000B583B001900091019B03F10C03184619
:1030B0000099FFF71DF80346184603B000BD00BF96
:1030C00000B585B00390029101920093039B03F138
:1030D000300318460299019A009BFFF791F90346C5
:1030E000184605B000BD00BFAFF30080AFF300800D
:1030F00000B585B00390029101920093039B03F108
:103100000C0318460299019A009BFFF741F8034609
:10311000184605B000BD00BFAFF30080AFF30080DC
:1031200008B503F0DDF908BDAFF30080AFF3008010
:1031300000B587B0059004910392059A49F6A00363
:10314000C0F602031360059B03F10402059B5A605D
:10315000059B4FF001021A72059B03F10C02059BBF
:1031600003F1540305990091104619464FF04002AF
:10317000049BFEF745FF059B03F13002059B03F11D
:10318000940305990091104619464FF04002039BA5
:10319000FFF76EF807B000BDAFF30080AFF300801B
:1031A00000B583B001900091019B002B05D149F23D
:1031B0004010C0F60200FEF79BF94FF0200383F3A6
:1031C0001188FEF725F8019B1B7A012B09D0019B82
:1031D0001B7A022B05D049F24C10C0F60200FEF714
:1031E00087F90198009903F0C3F9019B4FF002029F
:1031F0001A72FEF72DF84FF0000383F3118803B025
:1032000000BD00BFAFF30080AFF30080AFF30080DC
:1032100000B583B001900B468DF80330FEF7D8F867
:10322000019B002B05D149F27810C0F60200FEF791
:103230005FF9019B5B69002B07D1019B03F104033C
:1032400018464FF00401FEF71BFE019B03F10C0230
:103250009DF8033010461946FEF7FAFE0346002B90
:1032600007DA019B03F1040318464FF08001FEF7D3
:1032700007FE03B000BD00BFAFF30080AFF30080D6
:1032800008B502F0BDFB08BDAFF30080AFF30080CE
:1032900000B583B00190019B4FF001021A70019BB1
:1032A0004FF000025A60019B4FF000029A60019BB0
:1032B00003F10C031846FEF7C3FD03B000BD00BFC9
:1032C00000B583B001900091019B002B02D0009BC0
:1032D000002B05D149F2A010C0F60200FEF708F954
:1032E0004FF0200383F31188FDF792FF019B1B78B9
:1032F000012B09D0019B1B78022B05D049F2B0109D
:10330000C0F60200FEF7F4F8019B009A5A6001989B
:1033100002F0E6FB019B4FF002021A70FDF798FFE6
:103320004FF0000383F3118803B000BDAFF30080BA
:1033300000B583B00190019B002B05D149F2DC1050
:10334000C0F60200FEF7D4F84FF0200383F3118893
:10335000FDF75EFF019B1B78022B05D049F2EC10B4
:10336000C0F60200FEF7C4F8019802F0A1FCFDF7D8
:103370006FFF4FF0000383F3118803B000BD00BF5F
:1033800000B583B00190019B002B05D149F2FC10E0
:10339000C0F60200FEF7ACF84FF0200383F311886B
:1033A000FDF736FF019B1B78022B05D049F20C205C
:1033B000C0F60200FEF79CF8019802F089FCFDF7C8
:1033C00047FF4FF0000383F3118803B000BD00BF37
:1033D00000B583B0FDF79CFF4FF4C043C4F2020375
:1033E0001B6803F03D0301934FF4C043C4F2020392
:1033F0004FF03D029A6041F26423C2F200031B6861
:10340000002B0CD041F26423C2F200031A6841F28F
:103410006423C2F200035B68184601999047FDF7E8
:10342000A7FFFDF7D5FC03B000BD00BFAFF30080E0
:1034300000B583B0FDF76CFF4FF4C043C4F2020344
:103440001B684FEA931303F03D0301934FF4C0430D
:10345000C4F202034FF474629A6041F26423C2F230
:1034600000039B68002B0CD041F26423C2F20003DE
:103470009A6841F26423C2F20003DB68184601999E
:103480009047FDF775FFFDF7A3FC03B000BD00BF3B
:1034900000B583B0FDF73CFF4FF4C043C4F2020314
:1034A0001B684FEA134303F03D0301934FF4C043FD
:1034B000C4F202034FF474129A6041F26423C2F220
:1034C00000031B69002B0CD041F26423C2F20003FD
:1034D0001A6941F26423C2F200035B69184601993C
:1034E0009047FDF745FFFDF773FC03B000BD00BF3B
:1034F00000B583B0FDF70CFF4FF4C043C4F20203E4
:103500001B684FEA935303F03D0301934FF4C0430C
:10351000C4F202034FF074629A6041F26423C2F273
:1035200000039B69002B0CD041F26423C2F200031C
:103530009A6941F26423C2F20003DB6918460199DB
:103540009047FDF715FFFDF743FC03B000BD00BF3A
:1035500000B583B0FDF7DCFE4FF4C043C4F20203B4
:103560005B6803F03D0301934FF4C043C4F20203D0
:103570004FF03D02DA6041F26423C2F200031B6A9D
:10358000002B0CD041F26423C2F200031A6A41F20C
:103590006423C2F200035B6A184601999047FDF765
:1035A000E7FEFDF715FC03B000BD00BFAFF30080E0
:1035B00000B583B0FDF7ACFE4FF4C043C4F2020384
:1035C0005B684FEA931303F03D0301934FF4C0434C
:1035D000C4F202034FF47462DA6041F26423C2F26F
:1035E00000039B6A002B0CD041F26423C2F200035B
:1035F0009A6A41F26423C2F20003DB6A1846019919
:103600009047FDF7B5FEFDF7E3FB03B000BD00BF3B
:1036100000B583B0FDF77CFE4FF4C043C4F2020353
:103620005B684FEA134303F03D0301934FF4C0433B
:10363000C4F202034FF47412DA6041F26423C2F25E
:1036400000031B6B002B0CD041F26423C2F2000379
:103650001A6B41F26423C2F200035B6B18460199B6
:103660009047FDF785FEFDF7B3FB03B000BD00BF3B
:1036700000B583B0FDF74CFE4FF4C043C4F2020323
:103680005B684FEA935303F03D0301934FF4C0434B
:10369000C4F202034FF07462DA6041F26423C2F2B2
:1036A00000039B6B002B0CD041F26423C2F2000399
:1036B0009A6B41F26423C2F20003DB6B1846019956
:1036C0009047FDF755FEFDF783FB03B000BD00BF3B
:1036D00000B583B0FDF71CFE4FF4C843C4F20203EB
:1036E0001B6803F03D0301934FF4C843C4F2020387
:1036F0004FF03D029A6041F26423C2F200031B6C5A
:10370000002B0CD041F26423C2F200031A6C41F288
:103710006423C2F200035B6C184601999047FDF7E1
:1037200027FEFDF755FB03B000BD00BFAFF30080DF
:1037300000B583B0FDF7ECFD4FF4C843C4F20203BB
:103740001B684FEA931303F03D0301934FF4C84302
:10375000C4F202034FF474629A6041F26423C2F22D
:1037600000039B6C002B0CD041F26423C2F20003D7
:103770009A6C41F26423C2F20003DB6C1846019993
:103780009047FDF7F5FDFDF723FB03B000BD00BF3B
:1037900000B583B0FDF7BCFD4FF4C843C4F202038B
:1037A0001B684FEA134303F03D0301934FF4C843F2
:1037B000C4F202034FF474129A6041F26423C2F21D
:1037C00000031B6D002B0CD041F26423C2F20003F6
:1037D0001A6D41F26423C2F200035B6D1846019931
:1037E0009047FDF7C5FDFDF7F3FA03B000BD00BF3C
:1037F00000B583B0FDF78CFD4FF4C843C4F202035B
:103800001B684FEA935303F03D0301934FF4C84301
:10381000C4F202034FF074629A6041F26423C2F270
:1038200000039B6D002B0CD041F26423C2F2000315
:103830009A6D41F26423C2F20003DB6D18460199D0
:103840009047FDF795FDFDF7C3FA03B000BD00BF3B
:1038500000B583B0FDF75CFD4FF4C843C4F202032A
:103860005B6803F03D0301934FF4C843C4F20203C5
:103870004FF03D02DA6041F26423C2F200031B6E96
:10388000002B0CD041F26423C2F200031A6E41F205
:103890006423C2F200035B6E184601999047FDF75E
:1038A00067FDFDF795FA03B000BD00BFAFF30080E0
:1038B00000B583B0FDF72CFD4FF4C843C4F20203FA
:1038C0005B684FEA931303F03D0301934FF4C84341
:1038D000C4F202034FF47462DA6041F26423C2F26C
:1038E00000039B6E002B0CD041F26423C2F2000354
:1038F0009A6E41F26423C2F20003DB6E184601990E
:103900009047FDF735FDFDF763FA03B000BD00BF3A
:1039100000B583B0FDF7FCFC4FF4C843C4F20203CA
:103920005B684FEA134303F03D0301934FF4C84330
:10393000C4F202034FF47412DA6041F26423C2F25B
:1039400000031B6F002B0CD041F26423C2F2000372
:103950001A6F41F26423C2F200035B6F18460199AB
:103960009047FDF705FDFDF733FA03B000BD00BF3A
:1039700000B583B0FDF7CCFC4FF4C843C4F202039A
:103980005B684FEA935303F03D0301934FF4C84340
:10399000C4F202034FF07462DA6041F26423C2F2AF
:1039A00000039B6F002B0CD041F26423C2F2000392
:1039B0009A6F41F26423C2F20003DB6F184601994B
:1039C0009047FDF7D5FCFDF703FA03B000BD00BF3B
:1039D00082B041F26023C2F200034FF000021A608D
:1039E0004FF0000301931CE049F6C002C0F602024A
:1039F00001990B464FEA43035B184FEA8303D31840
:103A00001B684FF000021A6041F26423C2F2000307
:103A1000019A4FF0000143F83210019B03F10103BA
:103A20000193019B0F2BDFDD4FF4C043C4F202036F
:103A30004FF0FF329A604FF4C043C4F202034FF0DC
:103A4000FF32DA604FF4C843C4F202034FF0FF3292
:103A50009A604FF4C843C4F202034FF0FF32DA60B9
:103A600002B07047AFF30080AFF30080AFF3008087
:103A700000B585B00390029101920093039B002B47
:103A800005D149F2E030C0F60200FDF731FD039B9D
:103A90005B7A4FF0010202FA03F31A4641F2602307
:103AA000C2F200031B681340002B02D04FF0010349
:103AB00080E0039B5B7A1A4641F26423C2F2000362
:103AC000019943F83210039B5B7A41F26422C2F2FF
:103AD00000024FEAC303D318009A5A60039B5B7A33
:103AE0004FF0010202FA03F31A4641F26023C2F2D8
:103AF00000031B681A4341F26023C2F200031A60FC
:103B000041F26023C2F200031B68DBB2002B0BD032
:103B10004FF46053C4F202034FF46052C4F2020245
:103B2000126B42F400121A6341F26023C2F20003E6
:103B30001B6803F47F43002B0BD04FF46053C4F297
:103B400002034FF46052C4F20202126B42F480028C
:103B50001A63039B1B68039A1268126822F01F0203
:103B60001A60039B1B681B6803F00103002BF8D14C
:103B7000039B5B68039A127A4FF03D0101FA02F24F
:103B80001A60039B1B684FF000021A60039B1B68BE
:103B90004FF021025A61019B002B09D0039B9B7AB5
:103BA0001A46029B4FEA031310461946FDF7B0F977
:103BB0004FF00003184605B000BD00BFAFF3008012
:103BC0004FF4E043C4F200034FF4E042C4F20002B9
:103BD000126842F480721A604FF46053C4F2020318
:103BE0001B6F03F44073B3F5807F0DD04FF4605327
:103BF000C4F202034FF480321A674FF46053C4F2E8
:103C000002034FF000021A674FF46053C4F202033C
:103C10004FF46052C4F20202126F42F001021A67BE
:103C200000BF4FF46053C4F202031B6F03F00203A2
:103C3000002BF6D04FF46053C4F202031B6F03F461
:103C40000043002B17D14FF46053C4F202034FF42A
:103C50006052C4F20202126F42F480721A674FF48B
:103C60006053C4F202034FF46052C4F20202126FB6
:103C700042F400421A674FF4E043C4F200034FF4E9
:103C8000E042C4F20002526822F400725A607047A7
:103C900008B54FF46053C4F202031B694FF460533C
:103CA000C4F202034FF0FF321A614FF46053C4F2C2
:103CB00002034FF000021A614FF46053C4F2020392
:103CC0005B694FF46053C4F202034FF0FF325A6154
:103CD0004FF46053C4F202034FF000025A614FF4F4
:103CE0006053C4F202034FF46052C4F20202126A3B
:103CF00062F080521A624FF46053C4F202034FF034
:103D000000021A624FF46053C4F202035B6A4FF47C
:103D10006053C4F202034FF0FF325A624FF4605313
:103D2000C4F202034FF000025A624EF21003CEF2C8
:103D3000000349F23F02C0F202025A604EF2100341
:103D4000CEF200034FF000029A604EF21003CEF262
:103D500000034FF007021A604EF6F053CEF2000354
:103D60004EF6F052CEF20002D26842F08072DA6073
:103D70004FF48053CEF200034FF48052CEF2000293
:103D8000126842F001021A604FF46053C4F2020359
:103D90004FF46052C4F20202126C42F080521A6474
:103DA000FFF70EFFFFF714FE08BD00BFAFF3008062
:103DB0004FF46053C4F202034FF080521A644FF480
:103DC000E043C4F200034FF480421A6000BF4FF496
:103DD000E043C4F200035B6803F48043002BF6D099
:103DE0004FF46053C4F202034FF46052C4F2020273
:103DF000126842F001021A6000BF4FF46053C4F22F
:103E000002031B6803F00203002BF6D04FF460534B
:103E1000C4F202034FF46052C4F20202126842F488
:103E200080321A6000BF4FF46053C4F202031B6873
:103E300003F40033002BF6D04FF46053C4F20203B6
:103E40004FF46052C4F20202526F42F001025A670C
:103E500000BF4FF46053C4F202035B6F03F0020330
:103E6000002BF6D04FF46053C4F2020345F21A421D
:103E7000C0F240725A604FF46053C4F202034FF430
:103E80006052C4F20202126842F080721A6000BFEF
:103E90004FF46053C4F202031B6803F00073002B5D
:103EA000F6D04FF46052C4F202024FF46053C4F2F1
:103EB000020399684FF41443C3F608030B4393605D
:103EC0004FF47053C4F2020340F205721A604FF4CB
:103ED0006053C4F202034FF46052C4F202029268CB
:103EE00042F002029A6000BF4FF46053C4F2020332
:103EF0009B6803F00C03082BF6D14FF46053C4F217
:103F000002034FF46052C4F20202526C42F4804247
:103F10005A644FF46053C4F202034FF46052C4F287
:103F20000202526E42F480425A667047AFF300803C
:103F300000B585B0FDF7ECF94FF40053C4F201036E
:103F40001B6803934FF40053C4F201034FF00002C7
:103F50001A60039B03F02003002B6DD041F2E42391
:103F6000C2F20003DB6A1B685B68002B64D041F27D
:103F7000E423C2F200031B69002B5DD041F2E42070
:103F8000C2F2000000F0CCF941F2E423C2F20003D7
:103F90001B699B68002B21D041F2E423C2F200038D
:103FA0004FF005021A7041F2E423C2F200031B69CC
:103FB0009B6841F2E420C2F200004FF001019847F3
:103FC00041F2E423C2F200031B78052B06D141F233
:103FD000E423C2F200034FF002021A7041F2E4231C
:103FE000C2F200034FF000021A614FF0200383F386
:103FF0001188FDF74DF941F2E423C2F200035B6939
:10400000002B13D041F2E423C2F200035B69029358
:1040100041F2E423C2F200034FF000025A61029B16
:104020004FF0FF329A620298FDF78AFBFDF750F9D4
:104030004FF0000383F311884FF40453C4F20103DB
:104040001B6803934FF40453C4F201034FF00002C2
:104050001A60039B03F02003002B6DD041F218334C
:10406000C2F20003DB6A1B685B68002B64D041F27C
:104070001833C2F200031B69002B5DD041F21830E7
:10408000C2F2000000F04CF941F21833C2F2000312
:104090001B699B68002B21D041F21833C2F2000348
:1040A0004FF005021A7041F21833C2F200031B6987
:1040B0009B6841F21830C2F200004FF001019847AE
:1040C00041F21833C2F200031B78052B06D141F2EE
:1040D0001833C2F200034FF002021A7041F2183393
:1040E000C2F200034FF000021A614FF0200383F385
:1040F0001188FDF7CDF841F21833C2F200035B6975
:10410000002B13D041F21833C2F200035B69019314
:1041100041F21833C2F200034FF000025A61019BD2
:104120004FF0FF329A620198FDF70AFBFDF7D0F8D5
:104130004FF0000383F311884FF40853C4F20103D6
:104140001B6803934FF40853C4F201034FF00002BD
:104150001A60039B03F02003002B6DD041F24C3317
:10416000C2F20003DB6A1B685B68002B64D041F27B
:104170004C33C2F200031B69002B5DD041F24C307E
:10418000C2F2000000F0CCF841F24C33C2F200035E
:104190001B699B68002B21D041F24C33C2F2000313
:1041A0004FF005021A7041F24C33C2F200031B6952
:1041B0009B6841F24C30C2F200004FF00101984779
:1041C00041F24C33C2F200031B78052B06D141F2B9
:1041D0004C33C2F200034FF002021A7041F24C332A
:1041E000C2F200034FF000021A614FF0200383F384
:1041F0001188FDF74DF841F24C33C2F200035B69C0
:10420000002B13D041F24C33C2F200035B690093E0
:1042100041F24C33C2F200034FF000025A61009B9E
:104220004FF0FF329A620098FDF78AFAFDF750F8D6
:104230004FF0000383F31188FDF79AF8FCF7C8FDEF
:1042400005B000BDAFF30080AFF30080AFF3008096
:1042500008B541F2E420C2F20000FEF7F9F941F29C
:10426000E423C2F200034FF40052C4F201029A6246
:1042700041F2E423C2F20003264ADA6241F2E42367
:10428000C2F2000342F61642C0F202021A6341F281
:104290001830C2F20000FEF7DBF941F21833C2F227
:1042A00000034FF40452C4F201029A6241F218333F
:1042B000C2F20003184ADA6241F21833C2F2000374
:1042C00042F61642C0F202221A6341F24C30C2F2A8
:1042D0000000FEF7BDF941F24C33C2F200034FF487
:1042E0000852C4F201029A6241F24C33C2F2000356
:1042F0000A4ADA6241F24C33C2F2000342F6164235
:10430000C0F202421A634FF012004FF05001FCF766
:10431000FFFD08BD50990208389902082C9902083F
:1043200082B00190019BDB6A1B68019AD26A126815
:10433000126822F01F021A60019BDB6A1B681B686F
:1043400003F00103002BF7D1019BDB6A5B68019A44
:10435000D26A127A4FF03D0101FA02F21A60019B13
:104360009B6A4FF000025A60019B9B6A4FF000026B
:104370009A60019B9B6A4FF001029A6002B07047FD
:1043800008B5FCF7C5FF4FF47053C4F201034FF0BA
:1043900001025A6141F28033C2F200035B685B683C
:1043A00041F28030C2F200004FF000019847FCF764
:1043B000DFFFFCF70DFD08BDAFF30080AFF3008019
:1043C00008B5FCF7A5FF4FF47053C4F201034FF09A
:1043D00002025A6141F28033C2F200035B68DB687B
:1043E00041F28030C2F200004FF001019847FCF723
:1043F000BFFFFCF7EDFC08BDAFF30080AFF300801A
:1044000008B5FCF785FF4FF47053C4F201034FF079
:1044100004025A6141F28033C2F200035B685B69B7
:1044200041F28030C2F200004FF002019847FCF7E1
:104430009FFFFCF7CDFC08BDAFF30080AFF3008019
:1044400008B5FCF765FF4FF47053C4F201034FF059
:1044500008025A6141F28033C2F200035B68DB69F3
:1044600041F28030C2F200004FF003019847FCF7A0
:104470007FFFFCF7ADFC08BDAFF30080AFF3008019
:1044800008B5FCF745FF4FF47053C4F201034FF039
:1044900010025A6141F28033C2F200035B685B6A2A
:1044A00041F28030C2F200004FF004019847FCF75F
:1044B0005FFFFCF78DFC08BDAFF30080AFF3008019
:1044C00000B583B0FCF724FF4FF47053C4F201032E
:1044D0005B6903F4787301934FF47053C4F20103E2
:1044E000019A5A61019B03F02003002B0CD041F28A
:1044F0008033C2F200035B68DB6A41F28030C2F2B3
:1045000000004FF005019847019B03F04003002B8A
:104510000CD041F28033C2F200035B685B6B41F266
:104520008030C2F200004FF006019847019B03F073
:104530008003002B0CD041F28033C2F200035B6891
:10454000DB6B41F28030C2F200004FF00701984768
:10455000019B03F48073002B0CD041F28033C2F234
:1045600000035B685B6C41F28030C2F200004FF0E8
:1045700008019847019B03F40073002B0CD041F213
:104580008033C2F200035B68DB6C41F28030C2F220
:1045900000004FF009019847FCF7EAFEFCF718FC11
:1045A00003B000BDAFF30080AFF30080AFF3008035
:1045B00000B583B0FCF7ACFE4FF47053C4F20103B6
:1045C0005B6903F47C4301934FF47053C4F201031D
:1045D000019A5A61019B03F48063002B0CD041F2D5
:1045E0008033C2F200035B685B6D41F28030C2F23F
:1045F00000004FF00A019847019B03F40063002B71
:104600000CD041F28033C2F200035B68DB6D41F2F3
:104610008030C2F200004FF00B019847019B03F479
:104620008053002B0CD041F28033C2F200035B6850
:104630005B6E41F28030C2F200004FF00C019847EF
:10464000019B03F40053002B0CD041F28033C2F2E3
:1046500000035B68DB6E41F28030C2F200004FF075
:104660000D019847019B03F48043002B0CD041F2CD
:104670008033C2F200035B685B6F41F28030C2F2AC
:1046800000004FF00E019847019B03F40043002BFC
:104690000CD041F28033C2F200035B68DB6F41F261
:1046A0008030C2F200004FF00F019847FCF760FE27
:1046B000FCF78EFB03B000BDAFF30080AFF30080CA
:1046C00008B5FCF725FE4FF47053C4F201034FF414
:1046D00080325A6141F28033C2F200035B68D3F842
:1046E000843041F28030C2F200004FF01001984750
:1046F000FCF73EFEFCF76CFB08BD00BFAFF300808B
:1047000008B5FCF705FE4FF47053C4F201034FF4F3
:1047100000325A6141F28033C2F200035B68D3F881
:104720008C3041F28030C2F200004FF01101984706
:10473000FCF71EFEFCF74CFB08BD00BFAFF300808A
:1047400008B5FCF7E5FD4FF47053C4F201034FF4D4
:1047500080225A6141F28033C2F200035B68D3F8D1
:10476000943041F28030C2F200004FF012019847BD
:10477000FCF7FEFDFCF72CFB08BD00BFAFF300808B
:1047800008B5FCF7C5FD4FF47053C4F201034FF4B4
:1047900000225A6141F28033C2F200035B68D3F811
:1047A0009C3041F28030C2F200004FF01301984774
:1047B000FCF7DEFDFCF70CFB08BD00BFAFF300808B
:1047C00008B5FCF7A5FD4FF47053C4F201034FF494
:1047D00080125A6141F28033C2F200035B68D3F861
:1047E000A43041F28030C2F200004FF0140198472B
:1047F000FCF7BEFDFCF7ECFA08BD00BFAFF300808C
:1048000008B5FCF785FD4FF47053C4F201034FF473
:1048100080025A6141F28033C2F200035B68D3F830
:10482000B43041F28030C2F200004FF016019847D8
:10483000FCF79EFDFCF7CCFA08BD00BFAFF300808B
:1048400008B54FF006004FF06001FCF761FB4FF038
:1048500007004FF06001FCF75BFB4FF008004FF0E2
:104860006001FCF755FB4FF009004FF06001FCF7C9
:104870004FFB4FF00A004FF06001FCF749FB4FF08F
:1048800017004FF06001FCF743FB4FF028004FF09A
:104890006001FCF73DFB4FF001004FF06001FCF7B9
:1048A00037FB4FF029004FF0F001FCF731FB4FF0E0
:1048B0002A004FF06001FCF72BFB4FF03E004FF059
:1048C0006001FCF725FB4FF04C004FF06001FCF756
:1048D0001FFB4FF002004FF0F001FCF719FB4FF007
:1048E00003004FF0F001FCF713FB08BDAFF30080AD
:1048F00008B541F28030C2F20000FDF7D9FE08BDD4
:1049000000B585B00190019B1B78012B01D1FFF709
:1049100097FF4FF00003039315E0019B5B68039A38
:1049200053F8323003F00403002B04D001980399AC
:1049300000F00EF803E00198039900F0F1F8039BF2
:1049400003F101030393039B162BE6D905B000BDC9
:1049500086B001900091019B5B68009A53F8323059
:1049600003F00103002B10D04FF47053C4F2010385
:104970004FF47052C4F201029168009A4FF00100A6
:1049800000FA02F20A439A6011E04FF47053C4F245
:1049900001034FF47052C4F201029168009A4FF083
:1049A000010000FA02F26FEA02020A409A60019BDB
:1049B0005B68009A53F8323003F00203002B10D0EA
:1049C0004FF47053C4F201034FF47052C4F2010269
:1049D000D168009A4FF0010000FA02F20A43DA604F
:1049E00011E04FF47053C4F201034FF47052C4F25B
:1049F0000102D168009A4FF0010000FA02F26FEA5A
:104A000002020A40DA60019B5A68009B4FEAC30326
:104A1000D3185B68002B22D04FF47053C4F201030B
:104A20004FF47052C4F201021168009A4FF0010075
:104A300000FA02F20A431A604FF47053C4F2010301
:104A40004FF47052C4F201025168009A4FF0010015
:104A500000FA02F26FEA02020A405A6021E04FF4C3
:104A60007053C4F201034FF47052C4F20102516852
:104A7000009A4FF0010000FA02F20A435A604FF424
:104A80007053C4F201034FF47052C4F20102116872
:104A9000009A4FF0010000FA02F26FEA02020A40A7
:104AA0001A60009B0F2B36D8009B4FEA93030593A7
:104AB000009B03F003034FEA83034FF00F0202FA57
:104AC00003F36FEA03030493019B5B68009A53F8B6
:104AD000323003F0F0034FEA1312009B03F003039C
:104AE0004FEA830302FA03F303934FF46053C4F2D3
:104AF00001034FF46052C4F20102059901F1020171
:104B000052F82110049A1140039A1143059A02F1B8
:104B1000020243F8221006B0704700BFAFF30080D6
:104B200082B0019000914FF47053C4F201034FF42E
:104B30007052C4F201021168009A4FF0010000FAAD
:104B400002F26FEA02020A401A604FF47053C4F294
:104B500001034FF47052C4F201025168009A4FF001
:104B6000010000FA02F26FEA02020A405A604FF4B2
:104B70007053C4F201034FF47052C4F20102916801
:104B8000009A4FF0010000FA02F26FEA02020A40B6
:104B90009A604FF47053C4F201034FF47052C4F2A0
:104BA0000102D168009A4FF0010000FA02F26FEAA8
:104BB00002020A40DA604FF47053C4F20103009A13
:104BC0004FF0010101FA02F25A6102B0704700BFD2
:104BD00000B585B00390029101920093039B1B6B7B
:104BE00003F01003002B03D1029B4FEA43230293EF
:104BF000019B012B15D903984FF01201029A009BDB
:104C000000F0EEFA0346002B08D1009B1A684EF222
:104C10000803CFF6FF531340002B18D04FF00103C9
:104C200017E003984FF01101029A009B00F0D8FAA8
:104C30000346002B08D1009B1A684EF20803CFF6FA
:104C4000FF531340002B02D04FF0010301E04FF05F
:104C50000003184605B000BDAFF30080AFF300803D
:104C600000B585B00390029101920093039B1B6BEA
:104C700003F01003002B03D1029B4FEA432302935E
:104C8000019B012B15D903984FF01901029A009B43
:104C900000F0A6FA0346002B08D1009B1A684EF2DA
:104CA0000803CFF6FF531340002B18D04FF0010339
:104CB00017E003984FF01801029A009B00F090FA59
:104CC0000346002B08D1009B1A684EF20803CFF66A
:104CD000FF531340002B02D04FF0010301E04FF0CF
:104CE0000003184605B000BDAFF30080AFF30080AD
:104CF00000B585B00390029101924FF0200383F339
:104D00001188FCF785FA4FF43053C4F20103DB6BD2
:104D1000002B1ED0039BDB6B002B05D049F23040EB
:104D2000C0F60200FCF7E4FB41F21823C2F20003D4
:104D30009A69039BDA634FF00200FCF741FD039B85
:104D4000DB6B002B05D049F25840C0F60200FCF79F
:104D5000CFFB4FF43053C4F201035B6B03F4807359
:104D6000002B08D1FCF774FA4FF0000383F311888D
:104D70004FF0010338E000BF039B5B6C1B681B68AE
:104D800003F00103002BF7D1039B5B6C5B68039A74
:104D9000526C127A4FF03D0101FA02F21A604FF4A0
:104DA0003053C4F2010340F2FF72C0F2C0029A63B2
:104DB0004FF43053C4F201034FF00002DA62FCF703
:104DC00047FA4FF0000383F31188029B012B09D9A6
:104DD00003984FF00C014FF00002019B00F000FA25
:104DE000034601E04FF00003184605B000BD00BFC8
:104DF00084B0019000914FF000030393009B03F0F7
:104E00000103002B03D0039B43F001030393009B9A
:104E100003F00203002B03D0039B43F00203039330
:104E2000009B03F00403002B03D0039B43F0080313
:104E30000393009B03F00803002B03D0039B43F074
:104E400004030393009B03F01003002B03D0039B88
:104E500043F010030393009B03F02003002B03D0C7
:104E6000039B43F020030393009B03F40073002B88
:104E700003D0039B43F040030393019B5A6B039BB6
:104E80001A43019B5A6304B0704700BFAFF3008020
:104E900000B587B00390029101924FF43053C4F2F1
:104EA00001035B6B0593039B5B6C5B68039A526C1D
:104EB000127A4FF03D0101FA02F21A60039B5B6C1B
:104EC0001B68039A526C1268126822F01F021A6063
:104ED000039B5B6C1B681B6803F00103002BF7D17D
:104EE000039B5B6C5B68039A526C127A4FF03D0136
:104EF00001FA02F21A604FF43053C4F2010340F297
:104F0000FF72C0F2C0029A634FF43053C4F201033F
:104F10004FF00002DA634FF43053C4F201034FF054
:104F20000002DA6203980599FFF762FF029B012BEA
:104F300007D903984FF00C014FF00002019B00F0DD
:104F40004FF907B000BD00BFAFF30080AFF30080A2
:104F500008B5FCF7DDF94FF0200383F31188FCF767
:104F600097F94FF43053C4F201034FF00002DA63B3
:104F700041F28833C2F20003DB6B002B0ED041F20A
:104F80008833C2F20003DB6B1846FCF7D9FB41F211
:104F90008833C2F200034FF00002DA63FCF798F99D
:104FA0004FF0000383F31188FCF7E2F9FBF710FFE1
:104FB00008BD00BFAFF30080AFF30080AFF3008007
:104FC00008B541F28830C2F20000FDF749FD41F218
:104FD0008833C2F200034FF00002DA6341F28833F3
:104FE000C2F20003054A5A6441F28833C2F2000358
:104FF0004FF43052C4F201029A6408BD4499020889
:1050000082B001904FF43053C4F201034FF07802A4
:105010005A604FF43053C4F201034FF43052C4F2DB
:105020000102126842F003021A604FF43053C4F2D6
:1050300001034FF43052C4F20102526842F480720C
:105040005A6002B0704700BFAFF30080AFF300803A
:1050500082B001904FF43053C4F201034FF4305248
:10506000C4F20102526822F0FF025A6002B0704797
:1050700082B001904FF43053C4F201034FF00002AC
:105080005A604FF43053C4F201034FF000021A602B
:1050900002B07047AFF30080AFF30080AFF3008041
:1050A00084B001900B468DF803304FF43053C4F2B6
:1050B00001035B6823F4C05303939DF80330012B75
:1050C0000AD0022B11D0002B18D14FF43053C4F268
:1050D0000103039A5A6011E04FF43053C4F2010304
:1050E000039A42F400625A6008E04FF43053C4F26D
:1050F0000103039A42F480525A6000BF04B0704723
:1051000084B003900B4601928DF80B304FF430536E
:10511000C4F20103019A9A604FF43053C4F20103C0
:105120009DF80B2042F48062DA6000BF4FF43053E8
:10513000C4F201035B6B03F08003002BF6D04FF445
:105140003053C4F201034FF080029A6304B07047F9
:1051500000B587B00390019200930B468DF80B3099
:105160004FF43053C4F20103019A9A604FF4305364
:10517000C4F201039DF80B2042F04002D2B242F487
:105180008062DA6000BF4FF43053C4F201035B6BFE
:105190000593059B03F04503002BF4D04FF43053E7
:1051A000C4F20103059A9A63059B03F00403002BE4
:1051B00006D003980599FFF71BFE4FF0010308E0A6
:1051C0004FF43053C4F201035A69009B1A604FF048
:1051D0000003184607B000BDAFF30080AFF30080B6
:1051E00000B587B00390019200930B468DF80B3009
:1051F0004FF43053C4F20103019A9A604FF43053D4
:10520000C4F201039DF80B2042F04002D2B242F4F6
:105210008062DA6000BF4FF43053C4F201035B6B6D
:105220000593059B03F04503002BF4D04FF4305356
:10523000C4F20103059A9A63059B03F00503002B52
:1052400006D003980599FFF7D3FD4FF0010308E05E
:105250004FF43053C4F201035A69009B1A604FF0B7
:105260000003184607B000BDAFF30080AFF3008025
:1052700000B587B00390019200930B468DF80B3078
:105280004FF43053C4F20103019A9A604FF4305343
:10529000C4F201039DF80B2062F03F02D2B242F447
:1052A0008062DA6000BF4FF43053C4F201035B6BDD
:1052B0000593059B03F04503002BF4D04FF43053C6
:1052C000C4F20103059A9A63059B03F03F03002B88
:1052D00006D003980599FFF78BFD4FF0010329E0F5
:1052E0004FF43053C4F201031A6A009B1A60009B0A
:1052F00003F1040300934FF43053C4F20103DA695D
:10530000009B1A60009B03F1040300934FF4305399
:10531000C4F201039A69009B1A60009B03F1040325
:1053200000934FF43053C4F201035A69009B1A6092
:105330004FF00003184607B000BD00BFAFF3008078
:1053400000B587B00390029101920093009A47F64E
:10535000FF739A4205D949F29440C0F60200FCF767
:10536000C7F84FF43053C4F201034DF2C042C0F20B
:1053700001025A620398FDF733FB0346002B02D06B
:105380004FF001035CE0039B5B6C1B68019ADA60E1
:10539000039B5B6C1B68009A4FEA42224FEA920221
:1053A0005A60039B5B6C1B68039A126C1A60039B28
:1053B0005B6C1B68039A526C1268126842F001021F
:1053C0001A604FF43053C4F2010340F2FF72C0F28E
:1053D000C0029A634FF43053C4F2010340F22A3200
:1053E000DA634FF43053C4F20103009A4FEA4222C9
:1053F0009A6205AB03980299009AFFF7E9FB03460E
:10540000002B12D14FF43053C4F201034FF09B0232
:10541000DA6205AB039800991A46FFF769FC034668
:10542000002B04D14FF000030AE000BF00E000BFF2
:1054300005AB039800991A46FFF72AFD4FF00103C8
:10544000184607B000BD00BFAFF30080AFF3008087
:1054500000B587B00390029101920093009A47F63D
:10546000FF739A4205D949F29440C0F60200FCF756
:105470003FF84FF43053C4F2010348F68052C0F2B3
:105480005B025A620398FDF7ABFA0346002B02D089
:105490004FF001035EE0039B5B6C1B68019ADA60CE
:1054A000039B5B6C1B68009A4FEA42224FEA920210
:1054B0005A60039B5B6C1B68039A126C42F04002BB
:1054C0001A60039B5B6C1B68039A526C126812682B
:1054D00042F001021A604FF43053C4F2010340F26B
:1054E000FF72C0F2C0029A634FF43053C4F201035A
:1054F00040F21A32DA634FF43053C4F20103009AD7
:105500004FEA42229A6205AB03980299009AFFF78C
:10551000A7FB0346002B12D14FF43053C4F2010312
:105520004FF09902DA6205AB039800991A46FFF72B
:10553000DFFB0346002B04D14FF000030AE000BF5D
:1055400000E000BF05AB039800991A46FFF7A0FCE6
:105550004FF00103184607B000BD00BFAFF3008055
:1055600000B587B00390029101920093019B03F074
:105570000303002B34D04FF00003059329E0039878
:10558000029941F2D432C2F200024FF00103FFF758
:10559000D7FE0346002B02D04FF0010327E0019A0B
:1055A00041F2D433C2F2000311461A464FF400739D
:1055B000084611461A4603F06BF9019B03F5007388
:1055C0000193029B03F101030293059B03F1010385
:1055D0000593059A009B9A42D1D34FF0000306E051
:1055E00003980299019A009BFFF7AAFE034618460A
:1055F00007B000BDAFF30080AFF30080AFF30080D1
:1056000000B587B00390029101920093019B03F0D3
:105610000303002B33D04FF00003059328E041F241
:10562000D433C2F20003019A19464FF400730846BE
:1056300011461A4603F02CF9019B03F50073019300
:105640000398029941F2D432C2F200024FF00103F2
:10565000FFF7FEFE0346002B02D04FF0010315E0DA
:10566000029B03F101030293059B03F101030593E0
:10567000059A009B9A42D2D34FF0000306E00398AC
:105680000299019A009BFFF7E3FE0346184607B014
:1056900000BD00BFAFF30080AFF30080AFF3008028
:1056A00082B001904FF00003184602B0704700BF6F
:1056B00082B001900091009B5A68019B5A60009B48
:1056C0009A68019B9A60009BDA68019BDA60009BF4
:1056D0001A69019B5A61009B5A69019B1A62009BDF
:1056E0009A69019B5A62009B1A68019B1A6002B07A
:1056F000704700BFAFF30080AFF30080AFF30080CE
:1057000000B583B001904FF46053C4F202034FF42C
:105710006052C4F20202126B6FEA52226FEA422216
:105720001A634FF46053C4F202034FF46052C4F2A0
:105730000202126D6FEA52226FEA42221A65019B41
:105740004FF00000C4F202001946FFF7B1FF019BC1
:1057500003F11C034FF48060C4F202001946FFF706
:10576000A7FF019B03F138034FF40060C4F202006D
:105770001946FFF79DFF019B03F154034FF440606E
:10578000C4F202001946FFF793FF019B03F1700377
:105790004FF48050C4F202001946FFF789FF019BC5
:1057A00003F18C034FF4A050C4F202001946FFF736
:1057B0007FFF019B03F1A8034FF4C050C4F2020025
:1057C0001946FFF775FF019B03F1C4034FF4E05046
:1057D000C4F202001946FFF76BFF019B03F1E003DF
:1057E0004FF40050C4F202001946FFF761FF03B006
:1057F00000BD00BFAFF30080AFF30080AFF30080C7
:1058000082B041F2D453C2F200034FF42052C4F2EA
:1058100000021A604FF07F03019341F2D453C2F2A9
:1058200000031B684FF0CA025A6241F2D453C2F21D
:1058300000031B684FF053025A624FF42053C4F226
:105840000003DB6803F01003002B45D141F2D45371
:10585000C2F200031A6841F2D453C2F200031B687B
:10586000DB6843F08003D36041F2D453C2F20003FB
:105870001B68DB6803F04003002BF5D0019B4FEA67
:105880000342019B03F101034FF40041B1FBF3F329
:1058900003F1FF334FEA43434FEA5343134301936A
:1058A00041F2D453C2F200031B68019A1A6141F21B
:1058B000D453C2F200031B68019A1A6141F2D45317
:1058C000C2F200031A6841F2D453C2F200031B680B
:1058D000DB6823F08003D36002B07047AFF3008031
:1058E00000B585B001900091009B03F00C03002BE4
:1058F00001D0FBF7FDF9019B5B6A1B68019A526AB4
:105900001268126822F01F021A60019B5B6A1B6812
:105910001B6803F00103002BF7D1019B5B6A5B68F6
:10592000019A526A127A4FF03D0101FA02F21A60AE
:10593000019B1B6A1B68019A126A1268126822F0A6
:105940001F021A60019B1B6A1B681B6803F001039E
:10595000002BF7D1019B1B6A5B68019A126A127ACD
:105960004FF03D0101FA02F21A60019B5B681B686F
:10597000002B11D0019B4FF004021A70019B5B6851
:105980001B6801989847019B1B78042B08D1019B49
:105990004FF002021A7003E0019B4FF002021A70EE
:1059A0004FF0200383F31188FBF772FC019B9B6887
:1059B000002B0DD0019B9B680393019B4FF00002CD
:1059C0009A60039B4FF000029A620398FBF7B8FEBF
:1059D000FBF77EFC4FF0000383F3118805B000BD98
:1059E00000B583B001900091009B03F00C03002BE5
:1059F00001D0FBF77DF903B000BD00BFAFF300801D
:105A000008B541F23863C2F200034FF6FF721A8004
:105A100041F2D850C2F20000FDF73AFC41F2D853EF
:105A2000C2F200034FF44052C4F20102DA6141F2C3
:105A3000D853C2F20003244A1A6241F2D853C2F288
:105A40000003224A5A6241F2D853C2F200034FF0D7
:105A50001602C0F201629A6241F2D853C2F2000308
:105A60004FF04602C0F20162DA6241F20860C2F20F
:105A70000000FDF70DFC41F20863C2F200034FF491
:105A80006052C4F20002DA6141F20863C2F200031C
:105A90000F4A1A6241F20863C2F200030D4A5A62C9
:105AA00041F20863C2F200034FF01602C0F2010295
:105AB0009A6241F20863C2F200034FF04602C0F25C
:105AC0000102DA6208BD00BF209902085C99020851
:105AD000E4980208F0980208AFF30080AFF300806A
