:020000040800F2
:1000000000040020210D0008210F00085004000802
:10001000210F0008210F0008210F0008210F000800
:10002000210F0008210F0008210F0008510F0008C0
:10003000210F0008210F0008210F000851100008AF
:10004000210F000881340008210F0008C135000885
:10005000210F0008210F000881320008B13200088A
:10006000E1320008113300084133000891280008EC
:10007000D1280008112900085129000891290008F9
:10008000D1290008112A000811310008210F0008A9
:10009000210F0008210F0008210F0008713300080C
:1000A000210F0008B1450008210F0008D1450008C4
:1000B000E1430008210F0008210F0008210F00086C
:1000C000210F0008210F0008210F0008210F000850
:1000D000210F0008D1470008F1470008210F000850
:1000E000F1330008C134000801350008210F000871
:1000F000210F000801440008210F0008512A0008C0
:10010000210F000841380008210F0008210F0008C6
:10011000210F0008210F0008210F0008210F0008FF
:10012000912A0008D12A0008112B0008512B000841
:10013000912B0008210F000841350008210F00080D
:10014000210F0008210F0008210F0008210F0008CF
:10015000D12B0008112C0008512C00081148000870
:10016000210F0008210F0008210F0008210F0008AF
:1001700081350008210F0008210F0008210F000819
:08018000210F0008210F000807
:100190002DE9F04F9BB001F0ABFE00F0E1FF05F060
:1001A000E7F94FF4FA6001F00BFC9B4812A903F049
:1001B00097FF994816A903F093FF4FF48053CEF2AE
:1001C000000341F2D4425F685D680F97C2F20002FB
:1001D00041F20076C2F2000641F2E84714685A681C
:1001E0005A68D6F800A08D488D491095C2F20007D4
:1001F0005D68119297F802B04FF4806904F028FC12
:10020000884805F06DFBC4F20209CDF830A0A04685
:10021000AA460EE0D9F81440DDF824A084F00205C7
:10022000C9F81450B046D9F8146086F00100C9F836
:100230001400794816A903F053FF41F20070C2F28E
:10024000000041F2E84104680C9F41F2D443C2F23D
:100250000001C2F20003A7428D781E6806D04FF459
:100260008052CEF200020C9450681090AB4506D03C
:100270004FF48051CEF20001AB464B681193179AB0
:10028000139F974206D04FF48050CEF20000416891
:1002900013920F914645C6D04FF48053CEF200031F
:1002A00041F2C06759680F9B0991C2F200075E498D
:1002B00038680095C3EB0A070D97109B099F0B90B8
:1002C000C3EB0A08C7EB0A03119F0E93C7EB0A0E94
:1002D0000D9F524802970E9FCDF810E003970B9F99
:1002E00001943346CDF81480069704F0B1FB05F075
:1002F00047F8824600288DD15146524649484B4B1B
:1003000005F06EFB514601224648494B05F068FB5B
:10031000514602224348474B05F062FB51460322F7
:100320004048454B05F05CFB4FF0010C06211F22B5
:10033000CDF804C00B4600923A48CDF828C052468A
:1003400005F0BEFB514680223C4805F061FD80224D
:1003500053463B48394904F003FE32460E9B384869
:10036000384904F075FB354B2E480821524605F0FC
:1003700037FB51468022314805F04AFD8022534622
:100380002F482E4904F0ECFD179A0D9B2C482D495F
:1003900004F05EFBDDF828C0284B224862460821A5
:1003A00005F01EFB51468022244805F031FD8022D5
:1003B00053462348214904F0D3FD41F2C063C2F201
:1003C00000032A461E481F491B6804F041FB1B4BD3
:1003D00014480821022205F003FB514680221748E9
:1003E00005F016FD802253461548144904F0B8FD67
:1003F000224643461248134904F02AFB0F4B094892
:100400000821032205F0ECFA064805F019F9054821
:1004100005F066FAFEE600BFAC1100204C12002089
:10042000E07100089819002020720008407200084E
:1004300044720008487200084C7200081817002027
:100440000417002050720008AFF30080AFF3008063
:100450001EF0040F0CBFEFF30880EFF3098004F0E7
:100460008FBD000000000000000000000000000040
:1004700081F0004102E000BF83F0004330B54FEA55
:1004800041044FEA430594EA050F08BF90EA020FC2
:100490001FBF54EA000C55EA020C7FEA645C7FEA55
:1004A000655C00F0E2804FEA5454D4EB5555B8BF78
:1004B0006D420CDD2C4480EA020281EA030382EAE9
:1004C000000083EA010180EA020281EA0303362D7B
:1004D00088BF30BD11F0004F4FEA01314FF4801C4E
:1004E0004CEA113102D0404261EB410113F0004F60
:1004F0004FEA03334CEA133302D0524263EB430317
:1005000094EA050F00F0A780A4F10104D5F1200EB4
:100510000DDB02FA0EFC22FA05F2801841F100010F
:1005200003FA0EF2801843FA05F359410EE0A5F1E3
:1005300020050EF1200E012A03FA0EFC28BF4CF014
:10054000020C43FA05F3C01851EBE37101F00045CA
:1005500007D54FF0000EDCF1000C7EEB00006EEBD7
:100560000101B1F5801F1BD3B1F5001F0CD3490861
:100570005FEA30004FEA3C0C04F101044FEA4452B8
:1005800012F5800F80F09A80BCF1004F08BF5FEA3F
:10059000500C50F1000041EB045141EA050130BD1F
:1005A0005FEA4C0C404141EB010111F4801FA4F1C2
:1005B0000104E9D191F0000F04BF01460020B1FA17
:1005C00081F308BF2033A3F10B03B3F120020CDA4F
:1005D0000C3208DD02F1140CC2F10C0201FA0CF02D
:1005E00021FA02F10CE002F11402D8BFC2F1200C92
:1005F00001FA02F120FA0CFCDCBF41EA0C01904048
:10060000E41AA2BF01EB0451294330BD6FEA040490
:100610001F3C1CDA0C340EDC04F11404C4F120027B
:1006200020FA04F001FA02F340EA030021FA04F38D
:1006300045EA030130BDC4F10C04C4F1200220FAE4
:1006400002F001FA04F340EA0300294630BD21FA22
:1006500004F0294630BD94F0000F83F4801306BFE8
:1006600081F480110134013D4EE77FEA645C18BFDC
:100670007FEA655C29D094EA050F08BF90EA020F73
:1006800005D054EA000C04BF1946104630BD91EA6B
:10069000030F1EBF0021002030BD5FEA545C05D16E
:1006A0004000494128BF41F0004130BD14F58004AD
:1006B0003CBF01F5801130BD01F0004545F0FE4121
:1006C00041F470014FF0000030BD7FEA645C1ABF56
:1006D000194610467FEA655C1CBF0B46024650EA8D
:1006E000013406BF52EA033591EA030F41F40021B9
:1006F00030BD00BF90F0000F04BF0021704730B53F
:100700004FF4806404F132044FF000054FF0000113
:1007100050E700BF90F0000F04BF0021704730B5D4
:100720004FF4806404F1320410F0004548BF4042A9
:100730004FF000013EE700BF42004FEAE2014FEAFE
:1007400031014FEA02701FBF12F07F4393F07F4FD9
:1007500081F06051704792F0000F14BF93F07F4F0B
:10076000704730B54FF4607401F0004521F000414E
:1007700020E700BF50EA010208BF704730B54FF0D4
:1007800000050AE050EA010208BF704730B511F0D9
:10079000004502D5404261EB41014FF4806404F111
:1007A00032045FEA915C3FF4DCAE4FF003025FEA93
:1007B000DC0C18BF03325FEADC0C18BF033202EB1B
:1007C000DC02C2F1200300FA03FC20FA02F001FA75
:1007D00003FE40EA0E0021FA02F11444C1E600BF14
:1007E00070B54FF0FF0C4CF4E06C1CEA11541DBFC7
:1007F0001CEA135594EA0C0F95EA0C0F00F0DEF892
:100800002C4481EA030621EA4C5123EA4C5350EA76
:10081000013518BF52EA033541F4801143F48013C7
:1008200038D0A0FB02CE4FF00005E1FB02E506F058
:100830000042E0FB03E54FF00006E1FB03569CF0AD
:10084000000F18BF4EF0010EA4F1FF04B6F5007FB3
:1008500064F5407404D25FEA4E0E6D4146EB060625
:1008600042EAC62141EA55514FEAC52040EA5E50AE
:100870004FEACE2EB4F1FD0C88BFBCF5E06F1ED858
:10088000BEF1004F08BF5FEA500E50F1000041EB8F
:10089000045170BD06F0004646EA010140EA02003C
:1008A00081EA0301B4EB5C04C2BFD4EB0C0541EA5E
:1008B000045170BD41F480114FF0000E013C00F373
:1008C000AB8014F1360FDEBF002001F0004170BD97
:1008D000C4F10004203C35DA0C341BDC04F11404B0
:1008E000C4F1200500FA05F320FA04F001FA05F23C
:1008F00040EA020001F0004221F0004110EBD37009
:1009000021FA04F642EB06015EEA430E08BF20EA34
:10091000D37070BDC4F10C04C4F1200500FA04F3D7
:1009200020FA05F001FA04F240EA020001F0004169
:1009300010EBD37041F100015EEA430E08BF20EADC
:10094000D37070BDC4F1200500FA05F24EEA020E24
:1009500020FA04F301FA05F243EA020321FA04F053
:1009600001F0004121FA04F220EA020000EBD3700A
:100970005EEA430E08BF20EAD37070BD94F0000F0A
:100980000FD101F00046400041EB010111F4801F3E
:1009900008BF013CF7D041EA060195F0000F18BFEF
:1009A000704703F00046520043EB030313F4801F2B
:1009B00008BF013DF7D043EA0603704794EA0C0FE5
:1009C0000CEA135518BF95EA0C0F0CD050EA4106FB
:1009D00018BF52EA4306D1D181EA030101F0004178
:1009E0004FF0000070BD50EA410606BF10461946A0
:1009F00052EA430619D094EA0C0F02D150EA0136AC
:100A000013D195EA0C0F05D152EA03361CBF1046EC
:100A100019460AD181EA030101F0004141F0FE418B
:100A200041F470014FF0000070BD41F0FE4141F40F
:100A3000780170BD70B54FF0FF0C4CF4E06C1CEA0F
:100A400011541DBF1CEA135594EA0C0F95EA0C0FC4
:100A500000F0A7F8A4EB050481EA030E52EA03357F
:100A60004FEA013100F088804FEA03334FF08055A0
:100A700045EA131343EA12634FEA022245EA1115CD
:100A800045EA10654FEA00260EF000419D4208BF7E
:100A9000964244F1FD0404F5407402D25B084FEA2B
:100AA0003202B61A65EB03055B084FEA32024FF4D7
:100AB00080104FF4002CB6EB020E75EB030E22BF34
:100AC000B61A754640EA0C005B084FEA3202B6EBF4
:100AD000020E75EB030E22BFB61A754640EA5C00A3
:100AE0005B084FEA3202B6EB020E75EB030E22BF33
:100AF000B61A754640EA9C005B084FEA3202B6EB34
:100B0000020E75EB030E22BFB61A754640EADC00F2
:100B100055EA060E18D04FEA051545EA16754FEA54
:100B200006164FEAC30343EA52734FEAC2025FEA72
:100B30001C1CC0D111F4801F0BD141EA00014FF001
:100B400000004FF0004CB6E711F4801F04BF0143D2
:100B50000020B4F1FD0C88BFBCF5E06F3FF6AFAEEE
:100B6000B5EB030C04BFB6EB020C5FEA500C50F17E
:100B7000000041EB045170BD0EF0004E4EEA113101
:100B800014EB5C04C2BFD4EB0C0541EA045170BD08
:100B900041F480114FF0000E013C90E645EA060E4C
:100BA0008DE60CEA135594EA0C0F08BF95EA0C0F7A
:100BB0003FF43BAF94EA0C0F0AD150EA01347FF4C2
:100BC00034AF95EA0C0F7FF425AF104619462CE799
:100BD00095EA0C0F06D152EA03353FF4FDAE1046FC
:100BE000194622E750EA410618BF52EA43067FF44D
:100BF000C5AE50EA41047FF40DAF52EA43057FF4DD
:100C0000EBAE12E700000000000000000000000052
:100C10004FEA410212F5001215D211D56FF4787324
:100C2000B3EB625212D94FEAC12343F0004343EAC7
:100C3000505311F0004F23FA02F018BF40427047A2
:100C40004FF00000704750EA013005D111F000402C
:100C500008BF6FF0004070474FF00000704700BFC2
:100C60004FEA4102B2F1E04324BFB3F5001CDCF1CE
:100C7000FE5C0DD901F0004C4FEAC0024CEA507006
:100C8000B2F1004F40EB830008BF20F00100704735
:100C900011F0804F21D113F13872BCBF01F0004038
:100CA000704741F480114FEA5252C2F11802C2F16A
:100CB000200C10FA0CF320FA02F018BF40F00100EB
:100CC0004FEAC1234FEAD32303FA0CFC40EA0C009D
:100CD00023FA02F34FEA4303CCE77FEA625307D1DA
:100CE00050EA01331EBF4FF0FE4040F44000704711
:100CF00001F0004040F0FE4040F40000704700BFAB
:100D0000704700BFAFF30080AFF30080AFF3008007
:100D1000FEE700BFAFF30080AFF30080AFF30080C9
:100D200072B6704C84F309884EF63472CEF200022B
:100D30004EF68853CEF200034FF040411160186820
:100D400040F470051D600022E1EE102A4EF63C735F
:100D5000CEF2000306211A6081F31488BFF36F8F6F
:100D60006148624DA84218D2EA1C051D531B23F0AE
:100D70000302034610184FF0553183421960C2F345
:100D800080020AD01AB185422B46296005D01D1D6C
:100D90005960083383426960F9D15548A04218D29E
:100DA0005449041D0A1B22F00305034628184FF07E
:100DB000553183421960C5F380020AD01AB18442CA
:100DC0002346216005D01D1D5960083383426960A8
:100DD000F9D103F0DDFD4849484881421BD2C61CC9
:100DE0000C1D321B464822F00302161D0568042321
:100DF000B3420D60C2F380020DD022B145680823D2
:100E0000B342256007D01A1D1D5884585D50083321
:100E1000B3428C50F7D13B483B49884217D2CB1C98
:100E2000041D1A1B22F003050346281800218342E3
:100E30001960C5F380020AD01AB1844223462160AA
:100E400005D01D1D5960083383426960F9D1FFF751
:100E500057FF2E4D2E498D421DD2CC1C2E1DA71B97
:100E6000B808471C01242A6800EA04089047BC42DD
:100E700011D0B8F1000F05D0022433689847BC4266
:100E8000354608D0696888470234A8682E1D804717
:100E90000835BC42F6D1FFF77BF91E4D1E4A95423C
:100EA0001DD2D41C2E1DA71BBB085F1C0124296862
:100EB00003EA04088847BC4211D0B8F1000F05D0FE
:100EC000022430688047BC42354608D06A689047A3
:100ED0000234AB682E1D98470835BC42F6D1FFF7A7
:100EE00017FF00BF000800200000002000040020C1
:100EF000000400200308002000080020240800202F
:100F00004875000828080020A8190020880100085A
:100F1000880100088801000888010008AFF30080FC
:100F2000FEE700BFAFF30080AFF30080AFF30080B7
:100F300072B6FEE7AFF30080AFF30080AFF300803E
:100F400000F09EF900F05CFC00F0B2F900DF00BF99
:100F5000EFF309824EF63073D2F8CC10CEF20003D4
:100F60006832596098686830986082F30988002375
:100F700083F31188704700BFAFF30080AFF30080A8
:100F800008B54FF46D43CEF200034FF44072C0F247
:100F9000FA520021996007201021DA6000F0B8F8B9
:100FA0000A204FF4007100F0B3F80B208021BDE857
:100FB000084000F0ADB800BFAFF30080AFF3008091
:100FC000202383F311884FF46D43CEF20003586859
:100FD00010F4006325D0EFF30983A3F1680282F3D4
:100FE000098816494FF080708A6943F84C0C92F8D2
:100FF0002300096892688968B0B1914294BF0022C9
:101000000122BAB10E4A43F8502CF1EE10FA4EF616
:101010003072CEF20002516841F001005966506012
:10102000704783F311887047914234BF0022012238
:10103000002AE7D1034843F8500CE8E7F40D0020FC
:10104000410F00084C0F0008AFF30080AFF30080A1
:1010500008B500F085F9202383F3118800F048F9E2
:1010600000F0BEF800F05CF9002383F3118800F073
:1010700097F9BDE80840FFF7A3BF00BFAFF30080BA
:101080002DE9F04F2DED108AC1F80CD0D0F80CD01E
:10109000BDEC108ABDE8F08FAFF30080AFF30080A5
:1010A00008B500F005F9002383F311882846A0470E
:1010B00000F0C6FC08BD00BFAFF30080AFF30080B6
:1010C000F0B44FF461438408CEF20003C03400F062
:1010D000030553F82470ED00FF26420906FA05F6D1
:1010E00027EA060601FA05F500F01F0002F1600785
:1010F000012101FA00F02E4343F8246043F8270051
:1011000043F82200F0BC7047AFF30080AFF30080DB
:1011100082084FF46D43CEF20003063200F0030064
:1011200030B4C00053F82250FF2404FA00F425EA3A
:10113000040401FA00F10C4343F8224030BC70472C
:10114000024B034A98698261FEE700BFF40D00205C
:10115000405F0008AFF30080AFF30080AFF3008082
:1011600030B583B0FFF70CFF00F00AFA00F0A0F9E9
:1011700000F066FE00F0ACFE00F062F940F62800D8
:101180004021C2F2000000F04BFB40F6F45440F264
:101190000043C2F20003C2F200040125C36180F8DB
:1011A0002050A06100F054F8002383F3118862B648
:1011B00046F2C001A269C0F60001916140F67800D4
:1011C000009341F241134FF4AC712A46C0F600037C
:1011D000C2F2000000F0A4FB03B030BDAFF300800A
:1011E000F8B500F0FDF8164B986990F8232012B17D
:1011F000511E80F82310446A124D631C4362E86854
:101200002C68421CAC42EA6018D0A768013FA76076
:10121000A7B92168E6684D60E760296000F080F8B2
:10122000002383F311882069B047202383F31188BA
:1012300000F05EF82C68A368002BEAD0F8BD00BF70
:10124000F40D0020E40D0020AFF30080AFF3008028
:10125000054B186810B905490A6822B10448054BC6
:101260001860FFF765BE7047D0090020DC0D002034
:10127000605F0008E00D0020AFF30080AFF3008056
:10128000074B186810B5074C08B9216821B1064A08
:10129000064B1A60FFF74CFE0120206010BD00BF16
:1012A000D0090020DC0D0020685F0008E00D002060
:1012B000084B186810B5084C28B92168002902DDD0
:1012C0000020206010BD054A054B1A60FFF730FE74
:1012D000F6E700BFD0090020DC0D0020705F000899
:1012E000E00D0020AFF30080AFF30080AFF300808B
:1012F000074B1868002810B5064C01DD216821B1A4
:10130000054A064B1A60FFF713FE0120206010BD4E
:10131000D0090020DC0D0020785F0008E00D0020DF
:10132000084B1868002810B5074C05DD2168002916
:1013300002DD0020206010BD044A054B1A60FFF753
:10134000F7FDF6E7D0090020DC0D0020805F0008E3
:10135000E00D0020AFF30080AFF30080AFF300801A
:1013600010B5202383F31188094C2168002902DB82
:10137000084A106828B10849084B1960FFF7D8FDE2
:1013800021684A1C2260002383F3118810BD00BF2E
:10139000D0090020DC0D0020885F0008E00D00204F
:1013A00010B5202383F31188094C2168002902DD40
:1013B000084A106828B10849084B1960FFF7B8FDC2
:1013C00021684A1E2260002383F3118810BD00BFEC
:1013D000D0090020DC0D0020905F0008E00D002007
:1013E000064B1868002804DB05490A68002A00DD5E
:1013F00070470448044B1860FFF79ABDD0090020DD
:10140000DC0D0020985F0008E00D0020AFF30080A5
:10141000064B186820B906490A68002A00DD7047A3
:101420000448054B1860FFF783BD00BFD0090020BA
:10143000DC0D0020A05F0008E00D0020AFF300806D
:1014400040F6D413C2F200031A46402142F8081BAA
:101450005A607047AFF30080AFF30080AFF30080B5
:101460000C490D4A10B4CC680C49536889691C605A
:101470005960846A9C6003F1100190F8204002F5E5
:10148000816081421C732ABF02F1080351605360DE
:1014900010BC7047E40D0020D4090020F40D00209A
:1014A00040F6E053C2F200031860FFF741BD00BFF1
:1014B00040F6E453C2F200034FF0FF3200205B60BD
:1014C0001B609A60D8607047AFF30080AFF3008074
:1014D000F8B505460C4616461F46FFF781FFCDB10D
:1014E000C6B1BCB10D492F610B68EE609A68944299
:1014F00004D91B68A41A9A68A242FAD358682B60D0
:101500008B42686005605D60AC6002D099680C1B1E
:101510009C60F8BD0248FFF7C3FFE3E7E40D00203D
:10152000B05F0008AFF30080AFF30080AFF300803E
:1015300010B50446FFF754FF84B1E36893B1206807
:101540000A4A904203D08168A368CA188260616821
:101550000860206800234160E36010BD0448FFF785
:101560009FFFEAE70348FFF79BFFE8E7E40D002051
:10157000C05F0008D05F0008AFF30080AFF30080C9
:1015800040F6F453C2F2000300225B601B609A60D5
:101590005B611B61704700BFAFF30080AFF3008059
:1015A00010B50446FFF71CFF94F820308BB10E2BCA
:1015B0000FD00022A168094884F8202000688368C1
:1015C0008B42FBD24168206061600C604460204621
:1015D00010BD0348FFF764FFEBE700BFF40D0020E8
:1015E000F05F0008AFF30080AFF30080AFF300803E
:1015F00010B52023044683F31188FFF779FE94F891
:1016000020300D2B11D8DFE803F016101007100B57
:10161000101010101010100BA06A8268511C81600D
:1016200094E80C001A60206843604FF0FF33A36217
:101630002046FFF7B5FFFFF773FE002383F3118801
:1016400010BD00BFAFF30080AFF30080AFF30080A8
:1016500070B5114C0646FFF7DBFE2368A5691A68D2
:1016600085F8206014210120546083F8200085F85B
:10167000231028462260A361FFF7F2FEEB69ADF16B
:101680006402934202D90548FFF70AFFA069294680
:10169000BDE87040FFF7F4BCF40D002004600008C2
:1016A00070B50C4686B00646FFF7B2FE631C12D03A
:1016B0000B4D0C4AAB69214601A8FFF709FF3046E4
:1016C000FFF7C6FF049B13B101A8FFF731FFA8691C
:1016D000806A06B070BD3046FFF7BAFF004DF6E7EE
:1016E000F40D0020F1150008AFF30080AFF3008087
:1016F00070B5144D04460E46FFF78AFEA869A2682D
:101700008368A6629A4213D9FFF74AFF0121064671
:1017100084F82010AC61FFF7A3FEF069ADF164021C
:1017200090420AD820463146BDE87040FFF7A8BC79
:101730002046BDE87040FFF733BF0348FFF7B0FE17
:10174000F0E700BFF40D002004600008AFF3008054
:1017500038B5104C2368A5691A680121142054601B
:1017600083F8201085F8230028462260A361FFF744
:1017700017FF2846FFF774FEEB69ADF16402934250
:1017800002D90548FFF78CFEA0692946BDE838401C
:10179000FFF776BCF40D002004600008AFF3008072
:1017A00070B5144E3368B5691A68AC68566001218B
:1017B000002083F820103260B36185F8200000E03B
:1017C0001B689A68A242FBD859682B60696028465A
:1017D0005D600D60FFF744FEEB69ADF1640083428C
:1017E00002D90548FFF75CFEB0692946BDE87040A4
:1017F000FFF746BCF40D002004600008AFF3008042
:10180000044B986990F8231009B1FFF7C9BFFFF79F
:101810009FBF00BFF40D0020AFF30080AFF3008046
:101820002DE9F00140F6F454C2F20004002265698B
:101830004164046100F13006816000F12C0C00F17C
:101840004C0745614FF0020860610121142480F8C3
:10185000208080F8212080F823400264C263426225
:1018600080F8221082612861C0F82CC046630663AC
:10187000C761BDE8F0017047AFF30080AFF30080AF
:101880002DE9F04704460D4617469846FFF7A8FD98
:1018900014B1B5F59C7F36D21E48FFF701FEA5F1C5
:1018A000640161181C4E089BD6F814C0E1604B64BB
:1018B0001A4BC1F840800B660221002504F130026A
:1018C00004F12C0A04F14C0984F82010142301219E
:1018D0002661A760C4F814C02046746184F82150C2
:1018E00084F8233067642564E563656284F8221018
:1018F000A561CCF81040C4F82CA062632263C4F840
:101900001C90BDE8F0877F2FC6D8B8F1000FC6D174
:10191000C2E700BF20600008F40D0020A1100008FD
:101920002DE9F04F9B4683B080468946924600F1F0
:101930004C0300F1010400F14D07FF26254604F891
:10194000016C05F8016B6C1CBC42F7D108EB090770
:10195000BB4215D21846552600F8016BD9437A18B8
:10196000B84202F001030BD01BB100F8016BB84282
:1019700006D0054605F8016B4670681CB842F8D1E0
:10198000202383F31188FFF77BFC0C9C5B465246B7
:10199000494600944046FFF773FF00210446FFF7D5
:1019A000A7FEFFF785FC002383F31188204603B0D0
:1019B000BDE8F08FAFF30080AFF30080AFF300809D
:1019C00010B5044610B90948FFF76AFD202383F3D8
:1019D0001188FFF755FC21460620FFF761FEFFF74F
:1019E00067FC002383F3118810BD00BF606000080E
:1019F00038B5104B9C692546A06255F82C0FA842BB
:101A000006D00168E162FFF7CBFDE06AA842F8D199
:101A100094F82100830704D1636922691A6121695E
:101A20004B610E20FFF714FE0348BDE83840FFF776
:101A300037BD00BFF40D002070600008AFF30080D8
:101A400010B52023044683F31188FFF719FC2046C4
:101A5000BDE81040FFF7CCBFAFF30080AFF30080CC
:101A600010B5044620B1002364602460A36010BD5B
:101A70000148FFF715FDF6E7E0600008AFF30080CE
:101A800038B504460D46FFF7ABFCC4B1E26B94F8E1
:101A9000203045EA0201082BE1630CD0092B00D06D
:101AA00038BDA06A01408842FAD12046FFF778FD90
:101AB0000023836238BDA26A1142F6D138BD0248C4
:101AC000FFF7EEFCE2E700BFBC610008AFF3008067
:101AD00070B505460E46FFF783FC65B12C68A5423C
:101AE00008D0201D0BC83343E360FFF7C9FF24680B
:101AF000A542F6D170BD0248FFF7D2FCEEE700BF69
:101B0000E0610008AFF30080AFF30080AFF3008026
:101B100010B4024659B1084B9B69986244680D2085
:101B200083E814005360236010BCFFF7B9BD4FF089
:101B3000FF3010BC704700BFF40D0020AFF30080F1
:101B400010B4C361019B40608A1800240060846067
:101B500041618161C1600261036210BC704700BFD6
:101B600038B504460D46FFF73BFC6369A269A068DF
:101B700093421AD0411CA16003F8015B22696361A2
:101B800093420BD22068A0420DD0016821604C60C6
:101B9000FFF706FD00228262104638BD2068E36828
:101BA000A0426361F1D1002038BD0028E2D06FF07F
:101BB000030038BDAFF30080AFF30080AFF30080C7
:101BC000F8B504460E46202383F31188FFF758FB2F
:101BD000E3690BB120469847A5682046314655B9C0
:101BE000FFF796FF071EF7DAFFF762FB2B4683F33A
:101BF00011883846F8BDA0692269013DA56010F83A
:101C0000017B9042A06124BFE068A061FFF750FB18
:101C1000002383F311883846F8BD00BFAFF300807E
:101C20002DE9F0470446154688461E46C769002A36
:101C30003AD0202383F31188FFF722FB08F1010A31
:101C40004FF00009A8440FB12046B847A5682046C8
:101C500031465DB9FFF75CFF0028F7D0FFF728FB9E
:101C60002B4683F311884846BDE8F087A369013D00
:101C7000A56013F8012B0AF8012C2069A3618342A7
:101C800024BFE368A361FFF713FB002383F31188EC
:101C9000C24509F10109E6D0202383F31188FFF73B
:101CA000EFFA0AF1010ACEE70148FFF7F9FBC0E7B6
:101CB00020620008AFF30080AFF30080AFF3008034
:101CC00010B4C361019B40608C1800608260416168
:101CD0008161C1600461036210BC7047AFF3008092
:101CE0002DE9F041202304468846164683F31188E7
:101CF000FFF7C6FAA568204631465DB9FFF708FF31
:101D0000071EF7DAFFF7D4FA2B4683F3118838461B
:101D1000BDE8F0816369013DA56003F8018B22698C
:101D20006361934228BFE368E16928BF636109B139
:101D300020468847FFF7BCFA002383F311881F462B
:101D40003846BDE8F08100BFAFF30080AFF30080FC
:101D500038B50446FFF744FBA3696269A0689A425C
:101D600016D0411CA16013F8015B2269A361934264
:101D70000BD22068A04206D0016821604C60FFF7BA
:101D80000FFC00228262284638BDE368A361F0E7B9
:101D90000028E6D06FF0020038BD00BFAFF300802E
:101DA0002DE9F0470446164688469A46D0F81C901E
:101DB000002A39D0202383F31188FFF761FA002726
:101DC000A56820466B1E0DB3A360656918F8011B5A
:101DD00005F8011B22696561954224BFE2686261D2
:101DE000B9F1000F00D0C847FFF762FA002383F370
:101DF00011880137013E14D0202383F31188FFF7A7
:101E00003FFAA56820466B1E002DDDD120465146C5
:101E1000FFF77EFE0028D3D0FFF74AFA2B4683F364
:101E200011883846BDE8F0870148FFF739FBC1E764
:101E300034620008AFF30080AFF30080AFF300809E
:101E400040F6146240F610634CF200010648C2F2FC
:101E50000002C2F20003C2F2010120F0070021F0EB
:101E60000701106019607047AF190020AFF30080C0
:101E700010B50446FFF7B4FA074A08491368096821
:101E8000E01D20F00700C91A88429ABF1818106098
:101E90000023184610BD00BF140E0020100E0020B5
:101EA00010B52023044683F31188FFF7E9F9204693
:101EB000FFF7DEFF0446FFF7FBF9002383F31188E9
:101EC000204610BDAFF30080AFF30080AFF3008079
:101ED00040F61863C2F2000341F6A1610022C0F689
:101EE000000103F1100019609A60DA60FFF7B8BDD5
:101EF00008B500F0CDFF46F68020C0F6000001F0E6
:101F0000EFFF00F015F800F02BF800F061F800F09A
:101F1000CFF800F0C5FB00F06BFB00F041FC00F0D7
:101F20002FF9BDE8084002F053BD00BFAFF30080B9
:101F300001F08EB8AFF30080AFF30080AFF3008004
:101F400000230122027043608360C3600361436128
:101F50001830FFF785BD00BFAFF30080AFF30080FE
:101F600001F08EBBAFF30080AFF30080AFF30080D1
:101F70000123002103704160704700BFAFF3008070
:101F800038B504460D46C0B1B9B1202383F311889A
:101F9000FFF776F92378581E012802D90948FFF780
:101FA0007FFA2046656001F0EBFB02212170FFF70C
:101FB0007FF9002383F3118838BD0348FFF770FAD7
:101FC000E3E700BF6062000850620008AFF30080E2
:101FD00002F026BAAFF30080AFF30080AFF30080C9
:101FE0000123002103704160704700BFAFF3008000
:101FF00038B504460D46C0B1B9B1202383F311882A
:10200000FFF73EF92378581E012802D90948FFF747
:1020100047FA2046656002F023FA02212170FFF79B
:1020200047F9002383F3118838BD0348FFF738FAD6
:10203000E3E700BF2C63000820630008AFF30080D3
:1020400038B504460D46FFF7CBF96CB12378022B67
:1020500002D00748FFF724FA0320207029462046C3
:10206000BDE8384002F04CBA0248FFF719FAEDE734
:10207000A063000888630008AFF30080AFF300801E
:1020800038B505460C46202383F31188FFF7F8F88E
:1020900028462146FFF7D4FFFFF70AF9002383F310
:1020A000118838BDAFF30080AFF30080AFF300803C
:1020B00002F09EBAAFF30080AFF30080AFF3008070
:1020C0000123002103704160704700BFAFF300801F
:1020D000914270B50C461546064615D38B1A1F2B38
:1020E00012D804F01F02511C01206B0900FA01F202
:1020F0006409511EA34205F01F0509D356F82300B9
:10210000084020FA05F070BD0848FFF7C9F9E8E774
:1021100056F8240056F823200840C5F1200300FAA1
:1021200003F022FA05F5284370BD00BF30640008B3
:10213000C368990F70B5044617D149213E22FFF7B5
:10214000C7FF31212F2206462046FFF7C1FF50224C
:10215000054653212046FFF7BBFF0136AA1C06FAAD
:1021600002F5093805FA00F070BD012901D0002000
:1021700070BD45213022FFF7ABFF0130800270BDFA
:1021800001F086BFAFF30080AFF30080AFF30080B3
:1021900038B504460D4660B159B12379052B01D0FD
:1021A000012038BDA06A4FF40071686029600020EA
:1021B00038BD0248FFF774F9EFE700BF706400080C
:1021C000F0B5044683B0002800F024812379022B67
:1021D00004D0052B02D09148FFF762F9032020714B
:1021E000204601F06DFB00210A46204601F0A8FBC5
:1021F0004FF4D5722046082101AB01F0D9FB02460D
:1022000070B9019B0121C3F30320884221636DD083
:10221000204601F075FB02232371012003B0F0BDBD
:10222000002121630025C8F21005642620463721CD
:10223000002201AB01F0BCFB0028E9D14EF20800FE
:102240000199CFF6FF5008400028E1D1204629210E
:102250002A4601AB01F08CFB07460028D8D1019B30
:10226000002B5BDB013ED3D00A20FFF7A9FB204601
:1022700037213A4601AB01F09BFB0028C8D14EF252
:102280000803019ACFF6FF531340002BC0D120461C
:1022900029212A4601AB01F06BFB07460028B7D184
:1022A000019B002B3ADB0A20FFF78AFB20463721EF
:1022B0003A4601AB01F07CFB0028A9D14EF20800A0
:1022C0000199CFF6FF5008400028A1D120462921CE
:1022D0002A4601AB01F04CFB002899D1019B002B51
:1022E0001CDB0A20023EFFF76BFB9FE720463721ED
:1022F00001AB01F05DFB00288AD14EF20803019A80
:10230000CFF6FF531340002B82D1256B05F00F064B
:10231000012E87D10025CCF2100586E75B0003D59E
:10232000226B42F01000206300222046022104F1BB
:10233000080301F0FDFB024600287FF469AF204648
:10234000032104F1380301F033FB00287FF460AF70
:1023500004F1180520460921A26B2B4601F0E8FB89
:1023600000287FF455AF204601F0BAFA2046072135
:10237000A26B01AB01F01CFB00287FF449AF2046A3
:1023800010214FF4007201AB01F012FB00287FF422
:102390003FAF4EF20801019BCFF6FF5119400029D3
:1023A0007FF436AF226B02F00F00012827D80121FD
:1023B000204601F0ADFA20463721A26B01AB01F0B7
:1023C000F7FA00287FF424AF4EF20801019BCFF604
:1023D000FF51194000297FF41BAF2046062102223D
:1023E00001AB01F0E5FA00287FF412AF4EF20802CB
:1023F0000198CFF6FF520240002A7FF409AF284629
:10240000FFF796FEA06200283FF402AF052121717C
:10241000002003E70248FFF743F8D7E6906400087E
:1024200080640008AFF30080AFF30080AFF300805A
:1024300038B5044658B12579052D01D0012038BDA5
:1024400008232371204601F043FD257138BD024861
:10245000FFF726F8EFE700BFA4640008AFF30080A1
:10246000F8B504460E4617461D4690B18AB183B1B1
:102470002379052B02D00E48FFF712F8721EA06ACE
:102480005119814209D9606B40F0800161630120DC
:10249000F8BD0848FFF704F8EAE7072323713A4636
:1024A000204631462B4601F0ABFC05222271F8BDD7
:1024B000C0640008B0640008AFF30080AFF3008090
:1024C000F8B504460E4617461D4690B18AB183B151
:1024D0002379052B02D00E48FEF7E2FF721EA06A98
:1024E0005119814209D9606B40F08001616301207C
:1024F000F8BD0848FEF7D4FFEAE7062323713A4601
:10250000204631462B4601F013FC05222271F8BD0E
:10251000DC640008D0640008AFF30080AFF30080F3
:1025200010B5044682B001AB20460D21A26B01F02C
:102530003FFA4EF20803CFF6FF5338B9019A134021
:10254000C2F3432113B9042909D002D2012002B0F9
:1025500010BD0729FAD80120FFF732FAE3E7184641
:10256000F5E700BFAFF30080AFF30080AFF300806A
:1025700038B5044600282FD0202383F31188FEF7B6
:102580007FFE2379022B20D0052B05D01448FEF7BF
:1025900087FF2079022818D004212171FEF788FED8
:1025A000002383F311882046FFF7BAFF0546204633
:1025B0002DB901F0A5F902222271284638BD01F09B
:1025C0009FF902232371012038BDFEF771FE00231D
:1025D00083F31188184638BD0248FEF761FFCBE748
:1025E00000650008EC640008AFF30080AFF30080E2
:1025F00001F04EB9AFF30080AFF30080AFF300807D
:1026000046F250420023C0F600020121026001712F
:102610004363C36283627047AFF30080AFF300800F
:102620000C30FFF7FDBA00BFAFF30080AFF30080BE
:102630000C304FF0FF33FFF7F3BA00BFAFF3008069
:102640003030FFF7ADBB00BFAFF30080AFF30080C9
:1026500030304FF0FF33FFF7A3BB00BFAFF3008074
:102660000C30FFF7ADBA00BFAFF30080AFF30080CE
:102670000C304FF0FF31FFF7A3BA00BFAFF300807B
:102680003030FFF72DBB00BFAFF30080AFF3008009
:1026900030304FF0FF32FFF723BB00BFAFF30080B5
:1026A00002F0C6B8AFF30080AFF30080AFF3008054
:1026B00070B546F210630546C0F60003044645F8BF
:1026C000043B82B0656001250B46164604F15401B7
:1026D0004022257200F10C000094FFF731FA0094BB
:1026E00004F1300004F1940140223346FFF7E8FA88
:1026F00002B070BDAFF30080AFF30080AFF3008095
:1027000038B504460D46B8B1202383F31188FEF78F
:10271000B7FD237A581E012802D90948FEF7C0FEEA
:102720002046294602F0BCF802212172FEF7C0FDC6
:10273000002383F3118838BD0248FEF7B1FEE3E7BA
:10274000BC650008B0650008AFF30080AFF30080FF
:1027500038B504460D46FEF743FED4B163693BB17C
:1027600004F10C002946FFF7FBF900280BDB38BD0C
:10277000201D0421FFF7ACF904F10C002946FFF7F6
:10278000EFF90028F3DA201D8021BDE83840FFF77B
:102790009FB90248FEF784FEE0E700BFE865000845
:1027A00001F00EBDAFF30080AFF30080AFF3008007
:1027B000002301220270436083600C30FFF750B9A0
:1027C00038B504460D46C0B1B9B1202383F3118852
:1027D000FEF756FD2378581E012802D90948FEF756
:1027E0005FFE2046656001F02BFD02212170FEF79F
:1027F0005FFD002383F3118838BD0348FEF750FEC8
:10280000E3E700BF4066000830660008AFF30080D1
:1028100010B5044698B1202383F31188FEF730FDEC
:102820002378022B02D00848FEF73AFE204601F03A
:1028300097FDFEF73DFD002383F3118810BD03488B
:10284000FEF72EFEE7E700BF7C6600086C66000816
:1028500010B5044698B1202383F31188FEF710FDCC
:102860002378022B02D00848FEF71AFE204601F01A
:1028700087FDFEF71DFD002383F3118810BD03487B
:10288000FEF70EFEE7E700BF9C6600088C660008B6
:1028900010B5FEF765FD4FF4C043C4F202030848CB
:1028A000196802683D2401F03D019C600AB140684E
:1028B0009047FEF775FDBDE81040FEF781BB00BFF5
:1028C000380E0020AFF30080AFF30080AFF300803C
:1028D00010B5FEF745FD4FF4C043C4F202030948AA
:1028E000196882688C0904F03D014FF474649C609F
:1028F0000AB1C0689047FEF753FDBDE81040FEF7EF
:102900005FBB00BF380E0020AFF30080AFF3008044
:1029100010B5FEF725FD4FF4C043C4F20203094889
:10292000196802690C0C04F03D014FF474149C60AA
:102930000AB140699047FEF733FDBDE81040FEF74D
:102940003FBB00BF380E0020AFF30080AFF3008024
:1029500010B5FEF705FD4FF4C043C4F20203094869
:10296000196882698C0D04F03D014FF074649C601D
:102970000AB1C0699047FEF713FDBDE81040FEF7AD
:102980001FBB00BF380E0020AFF30080AFF3008004
:1029900010B5FEF7E5FC4FF4C043C4F2020308484B
:1029A0005968026A3D2401F03D01DC600AB1406AC9
:1029B0009047FEF7F5FCBDE81040FEF701BB00BFF5
:1029C000380E0020AFF30080AFF30080AFF300803B
:1029D00010B5FEF7C5FC4FF4C043C4F2020309482A
:1029E0005968826A8C0904F03D014FF47464DC601C
:1029F0000AB1C06A9047FEF7D3FCBDE81040FEF76D
:102A0000DFBA00BF380E0020AFF30080AFF30080C4
:102A100010B5FEF7A5FC4FF4C043C4F20203094809
:102A20005968026B0C0C04F03D014FF47414DC6027
:102A30000AB1406B9047FEF7B3FCBDE81040FEF7CB
:102A4000BFBA00BF380E0020AFF30080AFF30080A4
:102A500010B5FEF785FC4FF4C043C4F202030948E9
:102A60005968826B8C0D04F03D014FF07464DC609A
:102A70000AB1C06B9047FEF793FCBDE81040FEF72B
:102A80009FBA00BF380E0020AFF30080AFF3008084
:102A900010B5FEF765FC4FF4C843C4F202030848C2
:102AA0001968026C3D2401F03D019C600AB1406C44
:102AB0009047FEF775FCBDE81040FEF781BA00BFF5
:102AC000380E0020AFF30080AFF30080AFF300803A
:102AD00010B5FEF745FC4FF4C843C4F202030948A1
:102AE0001968826C8C0904F03D014FF474649C6099
:102AF0000AB1C06C9047FEF753FCBDE81040FEF7EA
:102B00005FBA00BF380E0020AFF30080AFF3008043
:102B100010B5FEF725FC4FF4C843C4F20203094880
:102B20001968026D0C0C04F03D014FF474149C60A4
:102B30000AB1406D9047FEF733FCBDE81040FEF748
:102B40003FBA00BF380E0020AFF30080AFF3008023
:102B500010B5FEF705FC4FF4C843C4F20203094860
:102B60001968826D8C0D04F03D014FF074649C6017
:102B70000AB1C06D9047FEF713FCBDE81040FEF7A8
:102B80001FBA00BF380E0020AFF30080AFF3008003
:102B900010B5FEF7E5FB4FF4C843C4F20203084842
:102BA0005968026E3D2401F03D01DC600AB1406EBF
:102BB0009047FEF7F5FBBDE81040FEF701BA00BFF5
:102BC000380E0020AFF30080AFF30080AFF3008039
:102BD00010B5FEF7C5FB4FF4C843C4F20203094821
:102BE0005968826E8C0904F03D014FF47464DC6016
:102BF0000AB1C06E9047FEF7D3FBBDE81040FEF768
:102C0000DFB900BF380E0020AFF30080AFF30080C3
:102C100010B5FEF7A5FB4FF4C843C4F20203094800
:102C20005968026F0C0C04F03D014FF47414DC6021
:102C30000AB1406F9047FEF7B3FBBDE81040FEF7C6
:102C4000BFB900BF380E0020AFF30080AFF30080A3
:102C500010B5FEF785FB4FF4C843C4F202030948E0
:102C60005968826F8C0D04F03D014FF07464DC6094
:102C70000AB1C06F9047FEF793FBBDE81040FEF726
:102C80009FB900BF380E0020AFF30080AFF3008083
:102C90002DE9F00F40F6B8658AB0C2F2000546F2A1
:102CA00040400295783046F21045C4F20205A0F586
:102CB00080600495C4F2020046F240450390C4F2DD
:102CC000020546F228400695C4F2020046F270451D
:102CD0000590C4F2020546F258400195C4F2020084
:102CE00046F2B8450790C4F2020546F288400995BD
:102CF000C4F20200029D089046F2100B002040F63C
:102D0000386346F2280A46F2400946F2580846F26D
:102D1000700C46F2880746F2A006C2F20003286053
:102D2000C4F2020B039DCBF80000C4F2020AC4F205
:102D30000209C4F20208C4F2020CC4F20207C4F28F
:102D400002061860CAF800009860C9F8000018610F
:102D5000C8F800009861CCF80000186238609862EA
:102D6000306018632860049D98632860059D18648E
:102D70002860069D98642860079D186546F21044F7
:102D800028606034019D986530342860C4F20204E4
:102D9000089D18664FF4C0414FF4C8422860C4F241
:102DA00002019866C4F202022060099C18674FF085
:102DB000FF35206098678D60CD609560D5600AB062
:102DC000BDE8F00F704700BFAFF30080AFF30080A5
:102DD0002DE9F041064684B0002848D0294F747A86
:102DE0003868012505FA04FC1CEA000F3BD1264D8A
:102DF0004CEA000005EBC40810F0FF0F45F8342042
:102E0000C8F80430386007D04FF46053C4F20203AE
:102E10001C6B44F400171F6310F47F4F1AD1346801
:102E2000276827F01F052560206810F00105FBD1F9
:102E3000307A73683D2707FA00F018602123256077
:102E4000636192B1B07A0901FEF73AF9284604B0FD
:102E5000BDE8F0814FF46055C4F20205286B40F4E0
:102E600080032B63DBE72846F1E71046EFE70748CE
:102E7000039102920193FEF713FB019B029A0399BF
:102E8000ACE700BFB80E0020380E002070680008C4
:102E90004FF46053C4F2020370B400224FF0FF34C9
:102EA00019691C611A6159695C615A611E6A4EF2A6
:102EB000100166F080561E62CEF200011A6249F2DD
:102EC0003F054EF6F0505E6A5C62CEF200000724C9
:102ED000C0F202055A624D608A600C60C4684FF40B
:102EE0008051CEF2000144F08074C460086840F064
:102EF00001000860186C4FF4E041C4F2000140F09A
:102F000080501864086840F480700860196F01F4FC
:102F10004070B0F5807F03D04FF4803119671A6795
:102F20004FF46053C4F2020319461A6F42F00100D5
:102F300018670A6F4FF460539007C4F20203F8D584
:102F4000196F0A0407D4186F40F480721A67196F5A
:102F500041F4004018674FF4E043C4F200035A689C
:102F600022F40071596070BCFFF792BEAFF300808D
:102F70004FF46052C4F202024FF4E043C4F2000383
:102F80004FF0805111644FF4804218461A60436834
:102F90005B04FCD54FF46050C4F2020001460268A5
:102FA00042F00103036008684FF460538007C4F2E5
:102FB0000203F8D5196841F480321A601846016896
:102FC0004FF460538A03C4F20203F8D55A6F42F0FB
:102FD0000100586719464A6F4FF460539007C4F2D6
:102FE0000203F8D545F21A40C0F2407058601968E3
:102FF00041F080721A60184601684FF460538A01EC
:10300000C4F20203F8D598684FF414424FF470519B
:10301000C3F60802C4F20201104340F20572986040
:103020000A60996841F002009860996801F00C000C
:103030004FF460520828C4F20202F6D1536C43F4F4
:1030400080415164506E40F480435366704700BF26
:10305000F8B540F6BC66C2F20006304640F6F065B0
:10306000FEF76EFFC2F200051A4F4FF4005242F60F
:103070001643C4F20102C0F20203284640F624744B
:10308000C2F20004B262F7623363FEF759FF4FF4F5
:10309000045242F61643A7F11801C4F20102C0F22D
:1030A00002232046AA62E9622B63FEF749FF4FF430
:1030B000085242F61643C4F20102243FC0F2024312
:1030C00012205021A262E7622363BDE8F840FDF7B9
:1030D000F7BF00BF50690008AFF30080AFF3008076
:1030E000C16A0A68136810B423F01F0414601368DF
:1030F00013F00103FBD10C7A826A49683D2000FA83
:1031000004F00860536093600123936010BC704723
:1031100038B5FEF725F94FF40053C4F2010300213E
:103120001A681960930605D5524CE06A03685A681C
:10313000002A6ED14FF40450C4F20100002103684C
:103140000160980605D54C4CE26A10684368002B74
:1031500038D14FF40850C4F2010000210368016027
:10316000990629D5454CE26A1068436823B3216962
:1031700011B32046FFF7B4FF2569AB683BB10522C8
:1031800020460121227098472078052868D0002524
:103190002561202383F31188FEF7AAF8606930B116
:1031A0004FF0FF33354A83625561FEF7F9F9FEF7B8
:1031B000B7F8002383F31188FEF7F2F8BDE8384032
:1031C000FDF7FEBE21690029C3D02046FFF788FF26
:1031D0002569AB683BB10522204601212270984742
:1031E0002078052842D000252561202383F311880B
:1031F000FEF77EF8606930B14FF0FF331E4A8362FC
:103200005561FEF7CDF9FEF78BF8002383F31188A3
:103210009FE7216900298DD02046FFF761FF2569CE
:10322000AB683BB1052020700121204698472278E9
:10323000052A18D000252561202383F31188FEF785
:1032400057F8606930B14FF0FF330A4A8362556125
:10325000FEF7A6F9FEF764F8002383F3118869E707
:103260000221217093E702212170E3E702212170FE
:10327000B9E700BFBC0E0020F00E0020240F002094
:1032800010B5FEF76DF840F65870C2F200004FF42A
:1032900070534268C4F20103012400215C61536849
:1032A0009847FEF77DF8BDE81040FDF789BE00BFE6
:1032B00010B5FEF755F840F65870C2F200004FF412
:1032C00070534268C4F20103022401215C61D36897
:1032D0009847FEF765F8BDE81040FDF771BE00BFE6
:1032E00010B5FEF73DF840F65870C2F200004FF4FA
:1032F00070534268C4F20103042402215C615369E3
:103300009847FEF74DF8BDE81040FDF759BE00BFE5
:1033100010B5FEF725F840F65870C2F200004FF4E1
:1033200070534268C4F20103082403215C61D3692D
:103330009847FEF735F8BDE81040FDF741BE00BFE5
:1033400010B5FEF70DF840F65870C2F200004FF4C9
:1033500070534268C4F20103102404215C61536A73
:103360009847FEF71DF8BDE81040FDF729BE00BFE5
:1033700010B5FDF7F5FF4FF47053C4F201035C691B
:1033800004F478725A61A30624D460061CD4210682
:1033900014D4E2050CD4A30504D511484168CB6CC4
:1033A00009219847FDF7FCFFBDE81040FDF708BE76
:1033B0000B48436808215A6C9047ECE7084841687D
:1033C000CA6B07219047E4E7054842680621536B22
:1033D0009847DCE702484168CB6A05219847D4E763
:1033E000580F0020AFF30080AFF30080AFF30080F0
:1033F00010B5FDF7B5FF4FF47053C4F201035C69DB
:1034000004F47C4261055A612CD4220524D4E304DF
:103410001CD4A00414D461040CD4220404D5144890
:1034200042680F21D36F9847FDF7BAFFBDE81040FF
:10343000FDF7C6BD0E4841684B6F0E219847ECE77B
:103440000B4843680D21DA6E9047E4E7084841686D
:103450004A6E0C219047DCE7054842680B21D36D8A
:103460009847D4E7024841684B6D0A219847CCE75A
:10347000580F0020AFF30080AFF30080AFF300805F
:1034800010B5FDF76DFF40F65870C2F200004FF422
:1034900070534268C4F201034FF4803410215C6120
:1034A000D2F884309847FDF77BFFBDE81040FDF768
:1034B00087BD00BFAFF30080AFF30080AFF30080A3
:1034C00010B5FDF74DFF40F65870C2F200004FF402
:1034D00070534268C4F201034FF4003411215C615F
:1034E000D2F88C309847FDF75BFFBDE81040FDF740
:1034F00067BD00BFAFF30080AFF30080AFF3008083
:1035000010B5FDF72DFF40F65870C2F200004FF4E1
:1035100070534268C4F201034FF4802412215C61AD
:10352000D2F894309847FDF73BFFBDE81040FDF717
:1035300047BD00BFAFF30080AFF30080AFF3008062
:1035400010B5FDF70DFF40F65870C2F200004FF4C1
:1035500070534268C4F201034FF4002413215C61EC
:10356000D2F89C309847FDF71BFFBDE81040FDF7EF
:1035700027BD00BFAFF30080AFF30080AFF3008042
:1035800010B5FDF7EDFE40F65870C2F200004FF4A2
:1035900070534268C4F201034FF4801414215C613B
:1035A000D2F8A4309847FDF7FBFEBDE81040FDF7C8
:1035B00007BD00BFAFF30080AFF30080AFF3008022
:1035C00010B5FDF7CDFE40F65870C2F200004FF482
:1035D00070534268C4F201034FF4800416215C6109
:1035E000D2F8B4309847FDF7DBFEBDE81040FDF798
:1035F000E7BC00BFAFF30080AFF30080AFF3008003
:1036000008B506206021FDF75BFD07206021FDF76E
:1036100057FD08206021FDF753FD09206021FDF7CB
:103620004FFD0A206021FDF74BFD17206021FDF7BB
:1036300047FD28206021FDF743FD01206021FDF7B3
:103640003FFD2920F021FDF73BFD2A206021FDF7F9
:1036500037FD60213E20FDF733FD4C206021FDF752
:103660002FFD0220F021FDF72BFD0320F021BDE806
:103670000840FDF725BD00BFAFF30080AFF3008029
:1036800040F65870C2F20000FEF772BCAFF3008043
:10369000426852F83130D80770B441D54FF47054B5
:1036A000C4F201040120A56800FA01F00543A560F9
:1036B000C44313F0020F4FF47053C4F20103DD68EA
:1036C00014BF05432540DD6002EBC1035D68002D9A
:1036D00032D04FF47053C4F201031D6828431860C0
:1036E000586804405C600F2918D88C084FF4605368
:1036F000A01CC4F2010352F8314053F8205001F0ED
:10370000030189000F2202FA01F2C4F3031425EA2F
:10371000020204FA01F10A4343F8202070BC70470A
:103720004FF47055C4F201050120AE6800FA01F0B3
:10373000C4432640AE60BCE74FF47053C4F20103AB
:103740005D6828435860186804401C60CBE700BFE0
:103750004FF47053C4F201030122186802FA01F118
:10376000CA4310401860586810405860986810406C
:103770009860D8680240DA6059617047AFF3008002
:1037800038B50378012B054635D06868016811F01B
:1037900004012CD028460021FFF77AFF01240EE017
:1037A000FFF776FF0134686850F834104B0716D5E0
:1037B000214628460134FFF76BFF172C16D06A68A4
:1037C00052F8343013F0040F28462146E8D1FFF7B1
:1037D000BFFF0134686850F834104B07E8D4214625
:1037E00028460134FFF7B4FF172CE8D138BD28462E
:1037F000FFF7AEFFD2E7FFF703FFC6E7AFF30080A6
:1038000001F001038A0748BF43F002034A0748BF9B
:1038100043F008030A0748BF43F00403CA0648BF41
:1038200043F010038A0648BF43F020038A05426B29
:1038300048BF43F0400342EA03014163704700BFC1
:1038400038B5FDF78DFD202383F311880C4CFDF76F
:103850004FFD4FF43053C4F20103E06B0025DD63EC
:1038600010B1FDF79DFEE563FDF75AFD002383F3DC
:103870001188FDF795FDBDE83840FDF7A1BB00BFFD
:10388000600F0020AFF30080AFF30080AFF3008043
:1038900010B540F66074C2F200042046FEF7B0FE98
:1038A0004FF430530348C4F201030022E263606422
:1038B000A36410BD44690008AFF30080AFF300803B
:1038C0004FF43053C4F2010378225A60186840F074
:1038D000030119605A6842F480705860704700BF55
:1038E0004FF43053C4F201035A6822F0FF005860CD
:1038F000704700BFAFF30080AFF30080AFF30080EC
:103900004FF43053C4F2010300225A601A6070472A
:103910004FF43053C4F2010301295A6822F4C05015
:1039200007D001D2586070470229FCD140F4805082
:10393000F8E740F400615960704700BFAFF30080C2
:103940004FF43053C4F2010341F480619A60184689
:10395000D960426B4FF430531106C4F20103F8D51D
:1039600080219963704700BFAFF30080AFF3008000
:1039700010B54FF43054C4F2010441F48861A260E0
:10398000E160616B4FF4305211F0450FC4F2010257
:10399000F7D011F00404916303D1516920461960F6
:1039A00010BDFFF72DFF012010BD00BFAFF3008059
:1039B00010B54FF43054C4F2010441F48861A260A0
:1039C000E160616B4FF4305211F0450FC4F2010217
:1039D000F7D011F00504916303D1516920461960B5
:1039E00010BDFFF70DFF012010BD00BFAFF3008039
:1039F0002DE9F041202306460F46904683F31188B7
:103A0000FDF73EFC4FF43053C4F20103D86B78B19C
:103A1000F16B11B12248FDF743FD224A946902205F
:103A2000F463FDF715FEF36B13B11F48FDF738FD86
:103A30004FF43050C4F20100416B11F4807427D070
:103A4000726C15682C6814F00104FBD1117A52686D
:103A50004FF43050C4F201003D2540F2FF7305FAE7
:103A600001F1C0F2C00311608363C462FDF720FC62
:103A7000234683F31188012F07D930460C212246B3
:103A80004346BDE8F041FFF793BF2046BDE8F08113
:103A9000FDF70EFC234683F311880120BDE8F08179
:103AA00094690008F40D0020BC690008AFF30080A1
:103AB0002DE9F047466C4FF43053347A3568C4F240
:103AC000010307464FF03D0E7068D3F834C00EFA7C
:103AD00004F404602B6823F01F04894690462C6090
:103AE000296811F00104FBD1327A4FF43055C4F249
:103AF00001053D2140F2FF7301FA02F2C0F2C0035A
:103B000002606146AB633846EC63EC62FFF778FE17
:103B1000B9F1010F07D938460C2122464346BDE8CA
:103B2000F047FFF745BFBDE8F08700BFAFF3008067
:103B300010B54FF43054C4F2010441F49861A2600E
:103B4000E160616B4FF4305211F0450FC4F2010295
:103B5000F7D011F03F04916309D1106A1860D16960
:103B600059609069986052692046DA6010BDFFF78D
:103B700047FE012010BD00BFAFF30080AFF300800F
:103B80002DE9F041B3F5004F82B01E4605460F46C1
:103B900090464FD24FF43054C4F201044DF2C0436A
:103BA000C0F2010363622846FEF7BAFC18B1012097
:103BB00002B0BDE8F081686C296C0368720290085D
:103BC000C3F80C8058601960186840F2FF7140F02B
:103BD00001001860C0F2C00140F22A33A163E36320
:103BE000A2622C6BE00658BF7F02012E01AC284672
:103BF00024D912213A462346FFF7DAFE98B94EF24D
:103C00000801019ACFF6FF51114061B94FF43050CD
:103C1000C4F201009B23C362314628462246FFF7C7
:103C2000E7FE0028C4D0284631462246FFF740FF71
:103C30000120BDE70548FDF733FCABE711213A460B
:103C40002346FFF7B5FE0028D9D0ECE7E469000869
:103C50002DE9F041B3F5004F82B01E4605460F46F0
:103C6000904651D24FF43054C4F2010448F68053C8
:103C7000C0F25B0363622846FEF752FC18B10120D4
:103C800002B0BDE8F081686C296C0368720290088C
:103C900041F04001C3F80C8058601960186840F288
:103CA000FF7140F001001860C0F2C00140F21A3309
:103CB000A163E363A2622C6BE40658BF7F02012E6E
:103CC00001AC284624D919213A462346FFF770FE55
:103CD00098B94EF20801019ACFF6FF51114061B92F
:103CE0004FF43050C4F201009923C3623146284694
:103CF0002246FFF77DFE0028C2D0284631462246E4
:103D0000FFF7D6FE0120BBE70548FDF7C9FBA9E791
:103D100018213A462346FFF74BFE0028D9D0ECE79E
:103D2000E4690008AFF30080AFF30080AFF30080D8
:103D300012F0030F2DE9F047154680460C461E464B
:103D400052D0002B4DD003EB0109CE434E4401234A
:103D5000274A1E40FFF714FF00283FD12846244978
:103D60004FF40072013401F0ABFF4C4505F50075CE
:103D700037D02EB3404621461D4A0123FFF700FFEE
:103D800060BB28461A494FF40072013401F098FFD5
:103D90004C4505F5007513D123E0284601F090FF4E
:103DA0003146134A01234046FFF7EAFE4FF4007202
:103DB0000F49BD1890B9384601F082FF4C4510D02C
:103DC000214601230A4A661C4046F418FFF7D8FE34
:103DD0004FF400720649AF180028DED00120BDE87C
:103DE000F0870020BDE8F087BDE8F047FFF7C8BEC8
:103DF000AC0F0020AFF30080AFF30080AFF3008082
:103E000012F0030F2DE9F041154607460C461E46F9
:103E100057D0002B52D003EB01082C48CB4311465E
:103E20004FF4007203EB080601F04AFF38462146C2
:103E3000264A012306F0010605F50075FFF708FF85
:103E4000002838D10134444538D0F6B129464FF422
:103E500000721E4801F034FF384621461B4A0123F8
:103E600005F50075FFF7F4FE28BB013444450CD17D
:103E700024E0164801F024FF38463146134A012356
:103E8000FFF7E6FEB8B9444518D029464FF4007252
:103E90000E4801F015FF661C214601230B4A3846E7
:103EA000F418FFF7D5FE05F500754FF400722946AA
:103EB000AD180028DDD00120BDE8F0810020BDE86C
:103EC000F081BDE8F041FFF7C3BE00BFAC0F00209A
:103ED00000207047AFF30080AFF30080AFF30080A5
:103EE0004FF46053C4F202031A6B6FEA52216FEA77
:103EF00041221A63196D6FEA51226FEA4221196556
:103F000000234168C4F202034FF480625960816863
:103F10009960C168D9600169596141691962816913
:103F2000596201681960016AC4F202024FF4006329
:103F30005160416A9160816AD160C16A5161016BCF
:103F40001162416B5162C1691160C4F20203C26B1C
:103F50005A60016C9960426CDA60816C5961C26C84
:103F60001A62016D5962816B4FF440621960816D74
:103F7000C4F202024FF480535160C16D9160016E32
:103F8000D160416E5161816E1162C16E5162416DAD
:103F90001160C4F20203426F5A60816F9960C26F70
:103FA000DA60D0F880105961D0F884201A62D0F815
:103FB00088105962016F4FF4A0521960D0F8901028
:103FC000C4F202024FF4C0535160D0F894109160D3
:103FD000D0F89810D160D0F89C105161D0F8A010A2
:103FE0001162D0F8A4105162D0F88C101160D0F892
:103FF000AC10C4F202034FF4E0525960D0F8B01094
:104000009960D0F8B410D960D0F8B8105961D0F8E0
:10401000BC101962D0F8C0105962D0F8A810C4F2D0
:1040200002021960D0F8C8305360D0F8CC1091600B
:10403000D0F8D030D360D0F8D4105161D0F8D83057
:104040001362D0F8DC105162D0F8C4104FF4005362
:104050001160D0F8E420C4F202035A60D0F8E810EE
:104060009960D0F8EC20DA60D0F8F0105961D0F8FF
:10407000F4201A62D0F8F8105962D0F8E000186005
:10408000704700BFAFF30080AFF30080AFF3008054
:104090004FF42053C4F200030F4ACA205321136087
:1040A00058625962DA68D10614D4D86840F08001A9
:1040B000D9601846C2684FF420535206C4F2000378
:1040C000F8D5FF21C0F27F0119611961D86820F08D
:1040D0008002DA60704700BFAC110020AFF30080AF
:1040E00070B40D4B1A68D0688406FCD51669956AC1
:1040F0001369146850684C607204540C5B04621BB2
:104100005B0C4FF47A7404FB02F20133B2FBF3F25E
:10411000CA60086070BC7047AC110020AFF300802B
:1041200011F00C0F00D17047FCF702BFAFF3008015
:1041300011F00C0F38B504463DD1606A026813686F
:1041400023F01F0111601568E907FCD4057A216A84
:1041500043680A683D2000FA05F01860136823F0F0
:104160001F0010601368DB07FCD46368087A4A6894
:104170001B683D2101FA00F11160CBB104202070D1
:10418000204698472278042A12D0202383F31188EE
:10419000FDF7AEF8A16829B10022A26008468A6244
:1041A000FDF7FEF9FDF7BCF8002383F3118838BD55
:1041B00002232370E9E7FCF7BBFEBEE7AFF3008004
:1041C000F8B541F2B01341F2B415C2F20005C2F2E3
:1041D0000003194E4FF6FF72284641F2E414C2F272
:1041E00000041A80FEF7E4FA4FF4405116224623E9
:1041F000C4F20101C0F20162C0F2016306F13C07A2
:104200002046E9612E62AA62EB626F62FEF7D0FA85
:104210004FF4605116224623A6F13C00C4F200017F
:10422000303EC0F20102C0F20103E1612062666229
:10423000A262E362F8BD00BF20690008AFF300800E
:1042400038B50378012B044627D0C36960684289DA
:10425000A06A02F4006189B2B9B1E16A20F4F040C9
:1042600021F4F04140F4205041F42051A062E16279
:1042700042F441720020072118801A8099801A8820
:1042800090B240F04001198038BDE16A20F4F0405E
:1042900021F4F041A062E162EAE7274DA8420CD088
:1042A000264DA84220D0216A626AE3690868116835
:1042B00003F10C0282608A60C8E7006A204A0A2182
:1042C0002346FEF785FD50BB686A1E4A1A4B0A2139
:1042D000FEF77EFDF8B94FF46053C4F20203586C48
:1042E00040F480525A64DEE7006A154A0A212346E8
:1042F000FEF76EFDD8B9686A124A104B0A21FEF724
:1043000067FD80B94FF46050C4F20200026C42F4C1
:1043100080410164C7E70C48FDF7C2F8DBE70B48B2
:10432000FDF7BEF8D0E70A48FDF7BAF8EAE7094812
:10433000FDF7B6F8DFE700BFB4110020E41100205C
:104340003141000821410008146A0008006A000891
:104350003C6A0008286A0008AFF30080AFF30080D1
:1043600043681A895868012101FA02F39AB242831C
:10437000704700BFAFF30080AFF30080AFF3008061
:1043800043681A895868012101FA02F39AB202833C
:10439000704700BFAFF30080AFF30080AFF3008041
:1043A000C26991811389D807FCD5908980B2704782
:1043B000017808B5C368002204291A6107D10221D7
:1043C00001701A601A61DA6822F0FF01D96043684F
:1043D0005A68904708BD00BFAFF30080AFF300807C
:1043E00008B5FCF7BDFF41F21420C2F20000FFF750
:1043F000DFFFFCF7D5FFBDE80840FCF7E1BD00BFDB
:1044000008B5FCF7ADFF41F22420C2F20000FFF72F
:10441000CFFFFCF7C5FFBDE80840FCF7D1BD00BFEA
:1044200008B541F21423C2F2000318464FF080424F
:10443000DA60FDF7D5FD41F22421C2F200014FF40C
:104440000053C4F200030846CB60BDE80840FDF706
:10445000C7BD00BFAFF30080AFF30080AFF30080B3
:1044600038B50378012B044618D06268A068136839
:10447000B0FBF3F14D1EADB205FB0333984203D000
:104480001C48FDF70DF86268117AE36800220820E5
:104490001A6058609D62D9601A6138BD164884421E
:1044A0001AD016498C42E0D14FF46055C4F202058F
:1044B0002A6C42F480732B64286A40F4807129626C
:1044C0002D2000222A624FF43D457021C0F2015593
:1044D000FCF7F6FDA560C8E74FF46055C4F202058D
:1044E0002A6C42F001032B64286A40F00101296222
:1044F0001C20E6E7506A0008141200202412002055
:10450000C368002201390120D96258615A621A61D8
:10451000DA6805210243DA6019607047AFF3008062
:1045200038B5224CE36862681869DD68117D054082
:10453000ADB2E8B2C043186105F0020398B299B970
:1045400038B1207804230328237002D0D268204693
:10455000904705F0040188B208BBEB0703D56368F8
:1045600012481969884738BD70B905F0040398B23C
:104570000028F2D021780D48042203292270ECD0C3
:104580004368D9688847E8E705212046217092688A
:10459000904705F0040398B20028DED0EAE763688C
:1045A00002489968052222708847D6E73412002015
:1045B00008B5FCF7D5FEFFF7B3FFFCF7F1FEBDE849
:1045C0000840FCF7FDBC00BFAFF30080AFF30080F4
:1045D00008B5FCF7C5FEFFF7A3FFFCF7E1FEBDE859
:1045E0000840FCF7EDBC00BFAFF30080AFF30080E4
:1045F00010B541F23424C2F200042046FDF760FDFC
:104600000023C4F20103E36010BD00BFAFF30080DC
:104610004FF48053C4F201039A8990B240F08001B4
:1046200099817047AFF30080AFF30080AFF3008053
:104630004FF48843C4F200039A8990B240F080019D
:1046400099817047AFF30080AFF30080AFF3008033
:104650004FF4A053C4F201039A8990B240F0800154
:1046600099817047AFF30080AFF30080AFF3008013
:104670002DE9F843D0F8D450AF892C88B5F80480E0
:10468000A4B222070646BFB21FFA88F855D104F437
:10469000807399B200293AD104F0200290B230BB65
:1046A00007F0800399B221B104F0800290B2002893
:1046B0006CD104F04004A4B2BCB1202383F3118870
:1046C000FCF716FE301D1021FDF702FAFCF728FE5C
:1046D000002383F311884FF6BF703840A8812B88E0
:1046E00023F040010A04100C2880BDE8F883202341
:1046F00083F31188FCF7FCFD30465FFA88F1FEF782
:1047000027F8FCF70DFE002383F31188C8E7202368
:1047100083F31188FCF7ECFD301D4FF40071FDF7B9
:10472000D7F9FCF7FDFD002383F311882A8822F4D2
:1047300080700304190C2980AEE704F008091FFA01
:1047400089F0002814BF4FF080094FF00009E307FB
:1047500004F0020399B248BF49F0200909B149F0B9
:10476000400904F0040290B208B149F48079202392
:1047700083F31188FCF7BCFD301D4946FDF7A8F90D
:10478000FCF7CEFD002383F3118880E7202383F319
:104790001188FCF7ADFD06F13000FDF7D9FA0028CD
:1047A00007DB83B2AB80FCF7BBFD002383F31188EA
:1047B0007FE70821301DFDF78BF927F0C00141F09C
:1047C0004002AA81EFE700BFAFF30080AFF30080A3
:1047D00008B5FCF7C5FD41F24C20C2F20000FFF71E
:1047E00047FFFCF7DDFDBDE80840FCF7E9BB00BF73
:1047F00008B5FCF7B5FD41F22430C2F20000FFF726
:1048000037FFFCF7CDFDBDE80840FCF7D9BB00BF82
:1048100008B5FCF7A5FD41F2FC30C2F20000FFF73D
:1048200027FFFCF7BDFDBDE80840FCF7C9BB00BF92
:1048300070B541F24C26C2F2000644F211623046D5
:104840000021C0F6000241F22435FDF731FFC2F22B
:1048500000054FF4805344F23162C4F2010328464C
:104860000021C0F6000241F2FC34C2F20004C6F896
:10487000D430FDF71DFF4FF4884344F25162C4F277
:10488000000320460021C0F60002C5F8D430FDF731
:104890000FFF4FF4A050C4F20100C4F8D40070BD63
:1048A00038B5037A364C002918BF0C46012B054653
:1048B0002CD04FF48050D5F8D4302168C4F20100D8
:1048C000834239D04FF4A052C4F20102934233D054
:1048D0004DF68060C0F28020B0FBF1F18AB21A81FF
:1048E000A288E088218942F4045240F0400080B25E
:1048F00041F0010142F02C02188292B289B20020EC
:1049000099829A8118801A889B8838BD1D488542F3
:104910001BD01D498D4225D01C4A9542C9D14FF468
:104920006053C4F202034720596C41F020025A64DC
:10493000C021FCF7C5FBBCE74FF43D40C0F201507D
:10494000B0FBF1F18AB21A81CAE74FF46053C4F2A6
:1049500002032520596C41F010025A64C021FCF773
:10496000AFFBA6E74FF46053C4F202032620196C94
:1049700041F400321A64C021FCF7A2FB99E700BFA2
:10498000706A00084C12002024130020FC13002041
:10499000FEF7EEBAAFF30080AFF30080AFF3008014
:1049A0004FF44063C4F202031869C0F3001181F0B0
:1049B00001007047AFF30080AFF30080AFF30080D9
:1049C0004FF44063C4F202031869C0F3401070470B
:1049D000704700BFAFF30080AFF30080AFF30080FB
:1049E000F0B4002B08BF0B46074600F10B0C00F19A
:1049F0000A05B1FBF2F602FB161101F13004392C65
:104A0000C8BF01F13704E4B2B3FBF2F328463146E4
:104A100005F80149002BECD1C0EB0C03F943024629
:104A2000F8184318DB070AD507F8014B12F8014FB5
:104A300005E012F8014F7C7012F8014F5F1C3B46F5
:104A400003F8014B8342F4D1F0BC7047AFF3008010
:104A50000EB42DE9F04F2DED028B8CB00DF1180C3A
:104A600017ABCDF808C0029A53F8046B0DF1190C7E
:104A7000CDF804C0C2EB0C0C05938046CDF80CC0F9
:104A8000344614F8011B61B1252911D0D8F8006013
:104A9000B368264634464046984714F8011B00295F
:104AA000F2D10CB0BDEC028BBDE8F04F03B0704703
:104AB00073782D2B00F0D08100272E2B00F0C881B9
:104AC000302B00F0C581202526460599002406E0FC
:104AD0000A78043104EB8404337802EB4404A3F134
:104AE0003000C2B20136092AF4D92A2BF0D00020B6
:104AF0002E2B05914BD06C2B55D04C2B53D0A3F1C2
:104B0000410119298CBF00210121A3F14402342A5B
:104B100000F29781DFE812F08B0195019501950174
:104B200095018B01950195019501950195018901EB
:104B300095019501950195019501810195019501D9
:104B400070019501950195019501950195019501DA
:104B500095019501950130018B019501EB009501BF
:104B600095018B01950195019501950195018901AB
:104B70009501950195014F009501810195019501E0
:104B800070010A78043100EB800302EB430016F851
:104B9000013BA3F13002D2B2092AF4D92A2BF0D07A
:104BA0006C2B0591A9D13178002900F059810B4671
:104BB00001360121A9E7059D46F680392B68C0F62C
:104BC0000009002B18BF9946291D99F8002005916E
:104BD00047F6FF75002808BF2846002A00F06281CA
:104BE00099F80130411E09EB000A09F1010201F0B8
:104BF0000100002B77D09245134608D000286DD0D5
:104C000055780132002D6ED09245134666D1C9EB1E
:104C10000A0ACAEB0404202524EAE474002F00F0F9
:104C2000BD80BAF1000F2ADD4F46D8F8000017F812
:104C3000011B8368CA446FEA090E40460AEB0E095D
:104C40009847574509F0010919D0B9F1000F04D070
:104C5000D8F8002017F8011B0CE0D8F80000B9467E
:104C6000826819F8011B40469047D8F800207978EF
:104C700009F101079368404698475745EDD1002C4C
:104C80003FF4FEAED8F80070631EBA681C4640467A
:104C9000294603F001079047002C3FF4F1AE47B1DD
:104CA000D8F8001040468B6829469847013C3FF4ED
:104CB000E7AED8F800002946826840469047D8F809
:104CC0000010013C8B68404629469847013CF0D1D2
:104CD000D6E65578013235B19A4598D058785A1CA5
:104CE000531C0028F5D1C9EB020A20254FE0059A94
:104CF000D01D20F0070101F10803D1E9000105935F
:104D0000FBF7AEFF08EE100AB5EEC08AF1EE10FA1E
:104D100000F1C08006A8FDEEC88A0A22002318EE22
:104D2000901AFFF75DFE81462E2009F8010B18EE60
:104D3000100AFBF701FD824618EE900A8B46FBF73E
:104D4000E9FC02460B4650465946FBF795FB58A333
:104D5000D3E90023FBF744FDFBF75AFF0A22014683
:104D600042F210734846FFF73BFEDDF808C00DF134
:104D70001809CCEB000A0AE0059DDDF80CA02968B3
:104D80002B1D05938DF8181020250DF11809CAEB7D
:104D9000040424EAE474002F7FF443AF6442002C3F
:104DA0003FF43FAF99F800102D2967D0D8F80010D4
:104DB000E2438B684046294602F0010798470134D8
:104DC0003FF42FAF47B1D8F8001040468A68294613
:104DD000904701343FF425AFD8F800002946836896
:104DE00040469847D8F8001001348A684046294662
:104DF00090470134F0D114E71022059B89B1191DA9
:104E00000591196806A80023FFF7EAFDDDF808A060
:104E10000DF11809CAEB000AB9E70A22059B00291F
:104E2000EDD1181D19680590ECE70822E5E7059B10
:104E30001A1DB9B119680592002917DB06A80A22C4
:104E4000E1E78DF81830DDF80CA00DF118099EE7A8
:104E500063783025013437E6B41CB37801272CE69B
:104E6000012152E6196805920029E7DA2D208DF814
:104E7000180049420DF119000A22C4E7302D95D1DE
:104E8000D8F800704046BB68984709F101090AF15B
:104E9000FF3A8BE72D228DF81820B1EE488A0DF1EC
:104EA000190038E79246202571E700BFAFF3008074
:104EB00000000000006AF840AFF30080AFF300800C
:104EC000C36882689A4206D04268D154C1684B1CBC
:104ED000C360002070476FF001007047AFF300809F
:104EE0000369C2689A4205D04168CA5C0133036114
:104EF000104670476FF00100704700BFAFF30080AD
:104F000038B5044608462369E5686168ED1AAA4287
:104F100038BF15462A46C91800F0D2FE206942194A
:104F20002261284638BD00BFAFF30080AFF3008098
:104F300038B5C36885680446ED1A4068AA4238BF90
:104F400015462A46C01800F0BBFEE1684A19E26027
:104F5000284638BDAFF30080AFF30080AFF3008088
:104F600010B446F69034C0F60004C3600023046019
:104F700041608260036110BC704700BFAFF30080E6
:104F80002DE9F84F0346D0F800B0D0F804A0354919
:104F900035481F695E699D69D3F80890D3F80C8085
:104FA000DC69FFF755FD304830495A46FFF750FDA0
:104FB0002D482F495246FFF74BFD2B482D494A46B5
:104FC000FFF746FD28482C494246FFF741FD3A4687
:104FD00025482A49FFF73CFD324623482849FFF778
:104FE00037FD2A4620482749FFF732FD1E4826494B
:104FF0002246FFF72DFD4EF63851CEF200011A4839
:105000000A682249FFF724FD4EF62852CEF200022C
:10501000154812681E49FFF71BFD4EF62C53CEF2C1
:1050200000034EF63057CEF200074EF63C561A6893
:105030000D481849CEF200064FF46D45FFF708FD04
:10504000CEF2000508483A681349FFF701FD06480B
:1050500032681249FFF7FCFC03486A6A1049FFF7FF
:10506000F7FCFEE7A06B00084C120020D06B000894
:10507000DC6B0008E86B0008F46B0008006C0008AB
:105080000C6C00083C6C00085C6C0008686C000844
:10509000746C0008806C00088C6C0008986C000828
:1050A000A46C0008AFF30080AFF30080AFF3008082
:1050B00041F2D443C2F200031A68501C18607047D2
:1050C0002DE9F00F614B86B01A7A93F809800192AE
:1050D000DDF804A0DE781D7993F801C05C799F7833
:1050E000997993F80090DA794FEA5A0B4FEA580A07
:1050F0004AEAC01058727008029068084FEA5C0AC9
:10510000039060084BEAC81804904FEA570B480810
:105110004AEAC717DDF80CA005904FEA590949EA99
:10512000CC194AEAC414DDF808C0DDF814A083F8ED
:1051300008804CEAC5154FEA52081889DDF810C0FE
:1051400083F800904AEAC212DDF804A09A714BF687
:10515000FC724BEAC6164CEAC11148EACA189042E2
:105160005F709E70DD701C71597183F8078012D0DA
:105170004FF40060C4F202004FF48053C4F2020303
:105180002021418380224FF480705A83588306B0D7
:10519000BDE8F00F70471A792D4C2E4893F800B0F7
:1051A0005FFA81FA5FFA85F95FFA88F15FFA87FCA6
:1051B000CAF3020A9F790568274B5FFA86F8C2F3A3
:1051C0000302C9F30209C1F301010AEB8A0A266846
:1051D00001EB810102EB4A0A09EB8909C8F30308D4
:1051E000CCF3010CC7F3030707EB410708EB4908B1
:1051F0005FFA8AF10CEB8C0CCBF3030B01365FFAF0
:1052000088F20BEB4C0CA94226601F7059709A7003
:1052100083F803C005D04FF48053C4F20203802406
:105220001C830E4B1D68AA4206D04FF48054C4F272
:1052300002044FF4807525834FF40064C4F2020425
:105240002025258301601A60A1E700BFDC1400203F
:10525000EC140020F8140020E8140020F0140020C2
:105260004FF48052154BCEF200021868526810B508
:1052700048F21961141AE008C1F66101A1FB00416E
:105280004C086FF4AF702118E4291A6008D9A13CCA
:105290008A2C04D80A4C23784BB90122227010BD05
:1052A0000020FFF70DFF064900240C7010BD0120FF
:1052B000FFF706FF0020207010BD00BFF41400208F
:1052C000D8140020AFF30080AFF30080AFF300806C
:1052D00038B541F2DC43C2F200031A46002441F221
:1052E000142542F8044BC2F2000546F6C041284698
:1052F000C0F600015C609480FCF77AFE4BF63F41FB
:105300002846C0F20151FCF7BBFE204638BD00BF65
:105310000023C4F2020341F2FD421869196941F207
:10532000FC43C2F20002C2F2000300F00100C1F32C
:105330004001107019700020704700BFAFF300806B
:105340000022C4F2020241F2FD431069C2F20003DE
:1053500000F0010119707047AFF30080AFF30080D7
:105360000022C4F2020241F2FC431069C2F20003BF
:10537000C0F3400119707047AFF30080AFF30080B5
:1053800041F2FD43C2F20003187880F0010070473B
:10539000F0B5324D324BAC693248A36183B0002185
:1053A0003C2200F035FD304E2E4F00E0AC6994F801
:1053B000212002F004010C46A1B98DF8071001224A
:1053C0002A480DF107014FF0FF33FCF729FC0128B3
:1053D000ECD1307848B99DF80740B52C0BD00023AC
:1053E0003370E3E7002003B0F0BD012807D19DF83A
:1053F0000740622CF3D1421C3C543270D6E7831E26
:10540000392BECD89DF80710421CD2B239541648FB
:105410003C2A0270CAD1398846F2B523994205D098
:1054200000213C220F4800F0F3FCD8E77A8840F2D4
:1054300001608242F4D138210D4800F061F8798F83
:105440008142EDD1202383F31188FBF719FFFBF78D
:105450002FFF234683F31188E2E700BFF40D0020FD
:10546000D06C0008C4160020BC16002008140020D0
:10547000C6160020AFF30080AFF30080AFF30080CA
:1054800041F20072C2F200024FF480511068CEF275
:1054900000010130106041F2B8634A68C2F20003B3
:1054A00019681A6041F2C063C2F20003501A186012
:1054B000704700BFAFF30080AFF30080AFF3008010
:1054C00010B541F2FC3040F6000182B0C2F200009B
:1054D000C2F20001FDF714F9002441F2005045F238
:1054E000913300944FF4DC714022C0F60003C2F205
:1054F0000000FCF715FA204602B010BDAFF30080A3
:1055000070B44C1EA4B200292AD0621E10F8013BD0
:105510004FF6FF7692B2B24204F00104DDB21BD026
:105520004CB110F8011B013A5B18DBB292B2ED18D6
:10553000B242EDB210D00146407811F8014B1B1970
:10554000DCB22018023AC3B22D1992B253FA85F593
:10555000481CB242EDB2EED143EA052070BC704760
:105560000846FBE7AFF30080AFF30080AFF30080A5
:105570002DE9F84F4FF480644FF00008C4F20204A4
:10558000C4F202084FF0010B4FF0020A4FF4004939
:1055900041F24C2040F60C01A4F818B0C2F2000011
:1055A000A4F818A0C2F20001A8F81890FDF7A8F816
:1055B00041F2B41647F2203741F2243040F6180188
:1055C000C2F20006C0F60007C2F20000C2F20001FB
:1055D00041F29875FDF794F8C2F20005304639465D
:1055E000FDF7EEF800214FF40072284600F010FCA1
:1055F00041F69810394632462B46C2F2000000F0C0
:10560000E7F8FFF75DFFFFF783FEFFF761FE642019
:10561000FCF7D6F940F6587047F26021A4F81AB0AA
:10562000C2F20000A4F81AA0C0F60001A8F81A906F
:10563000FCF7A6FC0020BDE8F88F00BFAFF30080A8
:105640002DE9F04F824683B04068DAF80010DFF8A9
:105650007081FDF7B5F8DAF80400FDF7D9F80827EE
:1056600000254FF0010998F80030BB4280F2888095
:1056700041F6A711C2F200010878B0EBC50FC0F2E5
:105680008480DAF8002041F6A414108AD268C2F2AD
:10569000000447F24056C0F6000694F800B0A95D39
:1056A00009FA00F4A0B241F6A513C2F20003508338
:1056B00041F0B0010BF10404DAF804001E78FEF7A3
:1056C0006FFE04F00F01DAF80400FEF769FEC4F380
:1056D000031242F01001DAF80400FEF761FEE02147
:1056E000DAF80400FEF75CFEDAF80030198AD868B0
:1056F00009FA01F293B2B345038341D8DAF80840BE
:10570000DAF8040004EB0B01EC01CBEB060202F02B
:105710000103095D0193FEF743FE0BF101005FFAFF
:1057200080FB5E452CD3019971B1DAF80820DAF8D4
:10573000040002EB0B03195DFEF732FE0BF10100D2
:105740005FFA80FB5E451BD3DAF80810DAF8040034
:1057500001EB0B020BF1010B115DFEF721FEDAF8F4
:105760000830DAF804005FFA8BFB03EB0B01095DEC
:10577000FEF716FE0BF101005FFA80FB5E45E3D2F7
:1057800001350837042D7FF46EAF41F6A411C2F243
:1057900000017F230B7041F6A513C2F20003002223
:1057A0001A7041F6A713C2F20003DAF804001A7067
:1057B0001F2188F8001003B0BDE8F04FFDF748B88E
:1057C000A6190020AFF30080AFF30080AFF3008094
:1057D00070B50446016062601046A3601E46FCF787
:1057E000EFFF6068FDF714F83220FCF7E9F8236852
:1057F0001A8B5969012505FA02F083B24B833220D6
:10580000FCF7DEF821680A8B4B6905FA02F081B2D9
:1058100019830A20FCF7D4F823681A8AD86805FA95
:1058200002F5ADB24583AE216068FEF7B9FDA12156
:105830006068FEF7B5FDC8216068FEF7B1FDA621DE
:105840006068FEF7ADFDA2216068FEF7A9FD2F217B
:105850006068FEF7A5FD21216068FEF7A1FDA42187
:105860006068FEF79DFD81216068FEF799FD2321A8
:105870006068FEF795FDAF216068FEF791FD6068F6
:10588000FCF7E6FF10490B780BB100220A700F48B5
:1058900001787E2901D87F2303700D4802780AB170
:1058A000002101700B4B18781E2801D81F221A7096
:1058B000304609494FF4007200F002FA2046BDE874
:1058C0007040FFF7BDBE00BFA4190020A51900203D
:1058D000A6190020A719002040730008AFF300802C
:1058E00008B54FF400728068002100F091FA0B4B6C
:1058F0001A780AB10020187009490B787E2B01D85C
:105900007F220A700748017809B100230370064816
:1059100002781E2A01D81F21017008BDA419002099
:10592000A5190020A6190020A7190020AFF30080B8
:1059300000292DE9F00344DB8668234D234F03EB58
:105940008303D40115F8038097F800C07618EB188C
:1059500006F80480866893F8028093F8039075181F
:105960002E195D78757085681E796B181D19CBB27C
:1059700085F8028085686D182D1902F1010885F8F7
:1059800003908068D2004118581D9C450C4488BF84
:105990003B700F4B26711C78C0B2844238BF187020
:1059A0000C4B1878D2B2904288BF1A700A4B4FEA5B
:1059B000C8011A78C9B28A4238BF1970BDE8F0032D
:1059C00070477F3149B2B7E7E06C0008A4190020A6
:1059D000A5190020A6190020A7190020AFF3008008
:1059E0002DE9F0410E1E804615461CDB1F4617F8B8
:1059F000014B31462A464046234605F1010C84B14D
:105A00000A2C03D15FFA8CF50026F0E7063676B251
:105A1000FFF78EFF792E02DD0135EDB20026032D52
:105A2000E5D9BDE8F0817F3676B2DFE7AFF30080DD
:105A3000002970B427DB1F2A23D8002B28D0D508D3
:105A400001EBC5138068D643C55C06F00704012648
:105A500006FA04F42C43C454154B1878C9B2884292
:105A600088BF1970134B1878884238BF1970124BD1
:105A700012481978914288BF1A700378934238BF50
:105A8000027070BC70477F3149B20029F9DBD2E760
:105A9000D30801EBC3138068D443C55C04F007044A
:105AA000012606FA04F425EA0404C454D4E700BF2E
:105AB000A4190020A5190020A6190020A71900206C
:105AC0002DE9F04F85B00D1E1F46814614469DF806
:105AD00038309DF83CA0C0F2D980002FC0F2D380AE
